{
  "contractName": "HomeChain",
  "abi": [
    {
      "inputs": [
        {
          "internalType": "address payable",
          "name": "_governmentWallet",
          "type": "address"
        }
      ],
      "stateMutability": "nonpayable",
      "type": "constructor"
    },
    {
      "anonymous": false,
      "inputs": [
        {
          "indexed": false,
          "internalType": "string",
          "name": "ann",
          "type": "string"
        },
        {
          "indexed": false,
          "internalType": "uint256",
          "name": "id",
          "type": "uint256"
        },
        {
          "indexed": false,
          "internalType": "uint256",
          "name": "prices",
          "type": "uint256"
        }
      ],
      "name": "Announcement",
      "type": "event"
    },
    {
      "anonymous": false,
      "inputs": [
        {
          "indexed": false,
          "internalType": "string",
          "name": "prs",
          "type": "string"
        },
        {
          "indexed": false,
          "internalType": "uint256",
          "name": "id",
          "type": "uint256"
        },
        {
          "indexed": false,
          "internalType": "address",
          "name": "buyer",
          "type": "address"
        }
      ],
      "name": "Approval",
      "type": "event"
    },
    {
      "anonymous": false,
      "inputs": [
        {
          "indexed": false,
          "internalType": "string",
          "name": "act",
          "type": "string"
        },
        {
          "indexed": false,
          "internalType": "address",
          "name": "buyer",
          "type": "address"
        },
        {
          "indexed": false,
          "internalType": "uint256",
          "name": "id",
          "type": "uint256"
        }
      ],
      "name": "PropertyUpdate",
      "type": "event"
    },
    {
      "inputs": [
        {
          "internalType": "address payable",
          "name": "_owner",
          "type": "address"
        },
        {
          "internalType": "uint256",
          "name": "_squaring",
          "type": "uint256"
        },
        {
          "internalType": "uint256",
          "name": "_floor",
          "type": "uint256"
        },
        {
          "internalType": "string",
          "name": "_construction",
          "type": "string"
        },
        {
          "internalType": "string",
          "name": "_city",
          "type": "string"
        },
        {
          "internalType": "string",
          "name": "_neighborhood",
          "type": "string"
        },
        {
          "internalType": "string",
          "name": "_description",
          "type": "string"
        },
        {
          "internalType": "string",
          "name": "_phone",
          "type": "string"
        }
      ],
      "name": "addEstate",
      "outputs": [],
      "stateMutability": "nonpayable",
      "type": "function"
    },
    {
      "inputs": [
        {
          "internalType": "uint256",
          "name": "id",
          "type": "uint256"
        },
        {
          "internalType": "uint256",
          "name": "_squaring",
          "type": "uint256"
        }
      ],
      "name": "setSquaring",
      "outputs": [],
      "stateMutability": "nonpayable",
      "type": "function"
    },
    {
      "inputs": [
        {
          "internalType": "uint256",
          "name": "id",
          "type": "uint256"
        },
        {
          "internalType": "uint256",
          "name": "_floor",
          "type": "uint256"
        }
      ],
      "name": "setFloor",
      "outputs": [],
      "stateMutability": "nonpayable",
      "type": "function"
    },
    {
      "inputs": [
        {
          "internalType": "uint256",
          "name": "id",
          "type": "uint256"
        },
        {
          "internalType": "string",
          "name": "_construction",
          "type": "string"
        }
      ],
      "name": "setConstruction",
      "outputs": [],
      "stateMutability": "nonpayable",
      "type": "function"
    },
    {
      "inputs": [
        {
          "internalType": "uint256",
          "name": "id",
          "type": "uint256"
        },
        {
          "internalType": "string",
          "name": "_neighborhood",
          "type": "string"
        }
      ],
      "name": "setNeighborhood",
      "outputs": [],
      "stateMutability": "nonpayable",
      "type": "function"
    },
    {
      "inputs": [
        {
          "internalType": "uint256",
          "name": "id",
          "type": "uint256"
        },
        {
          "internalType": "string",
          "name": "_description",
          "type": "string"
        }
      ],
      "name": "setDescription",
      "outputs": [],
      "stateMutability": "nonpayable",
      "type": "function"
    },
    {
      "inputs": [
        {
          "internalType": "uint256",
          "name": "id",
          "type": "uint256"
        },
        {
          "internalType": "string",
          "name": "_phone",
          "type": "string"
        }
      ],
      "name": "setPhone",
      "outputs": [],
      "stateMutability": "nonpayable",
      "type": "function"
    },
    {
      "inputs": [
        {
          "internalType": "uint256",
          "name": "id",
          "type": "uint256"
        }
      ],
      "name": "getEstateById",
      "outputs": [
        {
          "components": [
            {
              "internalType": "address payable",
              "name": "owner",
              "type": "address"
            },
            {
              "internalType": "address",
              "name": "tenant",
              "type": "address"
            },
            {
              "internalType": "bool",
              "name": "forRent",
              "type": "bool"
            },
            {
              "internalType": "bool",
              "name": "forSale",
              "type": "bool"
            },
            {
              "internalType": "uint256",
              "name": "payday",
              "type": "uint256"
            },
            {
              "internalType": "uint256",
              "name": "squaring",
              "type": "uint256"
            },
            {
              "internalType": "uint256",
              "name": "floor",
              "type": "uint256"
            },
            {
              "internalType": "string",
              "name": "construction",
              "type": "string"
            },
            {
              "internalType": "string",
              "name": "city",
              "type": "string"
            },
            {
              "internalType": "string",
              "name": "neighborhood",
              "type": "string"
            },
            {
              "internalType": "string",
              "name": "description",
              "type": "string"
            },
            {
              "internalType": "string",
              "name": "phone",
              "type": "string"
            }
          ],
          "internalType": "struct HomeChain.RealEstate",
          "name": "",
          "type": "tuple"
        }
      ],
      "stateMutability": "view",
      "type": "function",
      "constant": true
    },
    {
      "inputs": [
        {
          "internalType": "address payable",
          "name": "_newOwner",
          "type": "address"
        },
        {
          "internalType": "uint256",
          "name": "id",
          "type": "uint256"
        }
      ],
      "name": "changeOwner",
      "outputs": [],
      "stateMutability": "nonpayable",
      "type": "function"
    },
    {
      "inputs": [
        {
          "internalType": "uint256",
          "name": "id",
          "type": "uint256"
        }
      ],
      "name": "getOwnerById",
      "outputs": [
        {
          "internalType": "address payable",
          "name": "",
          "type": "address"
        }
      ],
      "stateMutability": "view",
      "type": "function",
      "constant": true
    },
    {
      "inputs": [],
      "name": "getEstates",
      "outputs": [
        {
          "components": [
            {
              "internalType": "address payable",
              "name": "owner",
              "type": "address"
            },
            {
              "internalType": "address",
              "name": "tenant",
              "type": "address"
            },
            {
              "internalType": "bool",
              "name": "forRent",
              "type": "bool"
            },
            {
              "internalType": "bool",
              "name": "forSale",
              "type": "bool"
            },
            {
              "internalType": "uint256",
              "name": "payday",
              "type": "uint256"
            },
            {
              "internalType": "uint256",
              "name": "squaring",
              "type": "uint256"
            },
            {
              "internalType": "uint256",
              "name": "floor",
              "type": "uint256"
            },
            {
              "internalType": "string",
              "name": "construction",
              "type": "string"
            },
            {
              "internalType": "string",
              "name": "city",
              "type": "string"
            },
            {
              "internalType": "string",
              "name": "neighborhood",
              "type": "string"
            },
            {
              "internalType": "string",
              "name": "description",
              "type": "string"
            },
            {
              "internalType": "string",
              "name": "phone",
              "type": "string"
            }
          ],
          "internalType": "struct HomeChain.RealEstate[]",
          "name": "",
          "type": "tuple[]"
        }
      ],
      "stateMutability": "view",
      "type": "function",
      "constant": true
    },
    {
      "inputs": [
        {
          "internalType": "uint256",
          "name": "id",
          "type": "uint256"
        },
        {
          "internalType": "uint256",
          "name": "price",
          "type": "uint256"
        }
      ],
      "name": "announceEstateForSale",
      "outputs": [],
      "stateMutability": "nonpayable",
      "type": "function"
    },
    {
      "inputs": [
        {
          "internalType": "uint256",
          "name": "id",
          "type": "uint256"
        },
        {
          "internalType": "uint256",
          "name": "price",
          "type": "uint256"
        }
      ],
      "name": "announceEstateForRent",
      "outputs": [],
      "stateMutability": "nonpayable",
      "type": "function"
    },
    {
      "inputs": [
        {
          "internalType": "uint256",
          "name": "id",
          "type": "uint256"
        }
      ],
      "name": "announceEstateNotForSale",
      "outputs": [],
      "stateMutability": "nonpayable",
      "type": "function"
    },
    {
      "inputs": [
        {
          "internalType": "uint256",
          "name": "id",
          "type": "uint256"
        }
      ],
      "name": "announceEstateNotForRent",
      "outputs": [],
      "stateMutability": "nonpayable",
      "type": "function"
    },
    {
      "inputs": [
        {
          "internalType": "string",
          "name": "a",
          "type": "string"
        },
        {
          "internalType": "string",
          "name": "b",
          "type": "string"
        }
      ],
      "name": "compareStrings",
      "outputs": [
        {
          "internalType": "bool",
          "name": "",
          "type": "bool"
        }
      ],
      "stateMutability": "pure",
      "type": "function",
      "constant": true
    },
    {
      "inputs": [
        {
          "internalType": "uint256",
          "name": "id",
          "type": "uint256"
        },
        {
          "internalType": "address payable",
          "name": "buyer",
          "type": "address"
        }
      ],
      "name": "approveBuyer",
      "outputs": [],
      "stateMutability": "nonpayable",
      "type": "function"
    },
    {
      "inputs": [
        {
          "internalType": "uint256",
          "name": "id",
          "type": "uint256"
        },
        {
          "internalType": "address payable",
          "name": "tenant",
          "type": "address"
        }
      ],
      "name": "approveTenant",
      "outputs": [],
      "stateMutability": "nonpayable",
      "type": "function"
    },
    {
      "inputs": [
        {
          "internalType": "uint256",
          "name": "id",
          "type": "uint256"
        }
      ],
      "name": "purchaseProperty",
      "outputs": [],
      "stateMutability": "payable",
      "type": "function",
      "payable": true
    },
    {
      "inputs": [
        {
          "internalType": "uint256",
          "name": "id",
          "type": "uint256"
        }
      ],
      "name": "rentProperty",
      "outputs": [],
      "stateMutability": "payable",
      "type": "function",
      "payable": true
    },
    {
      "inputs": [
        {
          "internalType": "uint256",
          "name": "id",
          "type": "uint256"
        }
      ],
      "name": "leave",
      "outputs": [],
      "stateMutability": "nonpayable",
      "type": "function"
    },
    {
      "inputs": [
        {
          "internalType": "uint256",
          "name": "id",
          "type": "uint256"
        }
      ],
      "name": "payRent",
      "outputs": [],
      "stateMutability": "payable",
      "type": "function",
      "payable": true
    },
    {
      "inputs": [
        {
          "internalType": "uint256",
          "name": "id",
          "type": "uint256"
        }
      ],
      "name": "removeTenant",
      "outputs": [],
      "stateMutability": "nonpayable",
      "type": "function"
    }
  ],
  "bytecode": "0x60806040523480156200001157600080fd5b5060405162003eb938038062003eb983398181016040528101906200003791906200012a565b33600560006101000a81548173ffffffffffffffffffffffffffffffffffffffff021916908373ffffffffffffffffffffffffffffffffffffffff16021790555080600660006101000a81548173ffffffffffffffffffffffffffffffffffffffff021916908373ffffffffffffffffffffffffffffffffffffffff160217905550506200015c565b600080fd5b600073ffffffffffffffffffffffffffffffffffffffff82169050919050565b6000620000f282620000c5565b9050919050565b6200010481620000e5565b81146200011057600080fd5b50565b6000815190506200012481620000f9565b92915050565b600060208284031215620001435762000142620000c0565b5b6000620001538482850162000113565b91505092915050565b613d4d806200016c6000396000f3fe6080604052600436106101405760003560e01c806379d9c439116100b6578063c54e31b11161006f578063c54e31b114610420578063c62f0ac414610449578063c7d9380014610472578063d40c48c21461049b578063d40eaa8a146104c6578063d9e8843f146104ef57610140565b806379d9c439146103305780637dd2e9931461034c5780639d36ab6c146103755780639d8ede9714610391578063ad7f1ed3146103ba578063bed34bba146103e357610140565b80635393d78d116101085780635393d78d14610212578063558ee2a91461023b57806356df3db1146102785780635ec1fc93146102a157806367dfd4c9146102ca57806376bf001c146102f357610140565b8063082ce716146101455780632a6446ca1461016e57806331a4f8d6146101975780633d0e653a146101c05780634da07e19146101e9575b600080fd5b34801561015157600080fd5b5061016c60048036038101906101679190612e78565b61050b565b005b34801561017a57600080fd5b5061019560048036038101906101909190612fba565b6107d9565b005b3480156101a357600080fd5b506101be60048036038101906101b99190613016565b6108a7565b005b3480156101cc57600080fd5b506101e760048036038101906101e29190612fba565b610965565b005b3480156101f557600080fd5b50610210600480360381019061020b9190612fba565b610a33565b005b34801561021e57600080fd5b5061023960048036038101906102349190612fba565b610b41565b005b34801561024757600080fd5b50610262600480360381019061025d9190613056565b610c0f565b60405161026f9190613285565b60405180910390f35b34801561028457600080fd5b5061029f600480360381019061029a91906132a7565b611026565b005b3480156102ad57600080fd5b506102c860048036038101906102c39190613016565b61115e565b005b3480156102d657600080fd5b506102f160048036038101906102ec9190613056565b61121c565b005b3480156102ff57600080fd5b5061031a60048036038101906103159190613056565b611338565b60405161032791906132f6565b60405180910390f35b61034a60048036038101906103459190613056565b611386565b005b34801561035857600080fd5b50610373600480360381019061036e9190613056565b6113c8565b005b61038f600480360381019061038a9190613056565b611566565b005b34801561039d57600080fd5b506103b860048036038101906103b39190613311565b6115a8565b005b3480156103c657600080fd5b506103e160048036038101906103dc9190613016565b6115ec565b005b3480156103ef57600080fd5b5061040a60048036038101906104059190613351565b611632565b60405161041791906133d8565b60405180910390f35b34801561042c57600080fd5b5061044760048036038101906104429190613016565b61168b565b005b34801561045557600080fd5b50610470600480360381019061046b9190613311565b6116d1565b005b34801561047e57600080fd5b5061049960048036038101906104949190613056565b611715565b005b3480156104a757600080fd5b506104b06117ae565b6040516104bd91906135d5565b60405180910390f35b3480156104d257600080fd5b506104ed60048036038101906104e89190613056565b611be8565b005b61050960048036038101906105049190613056565b611c81565b005b600560009054906101000a900473ffffffffffffffffffffffffffffffffffffffff1673ffffffffffffffffffffffffffffffffffffffff163273ffffffffffffffffffffffffffffffffffffffff161461059b576040517f08c379a00000000000000000000000000000000000000000000000000000000081526004016105929061367a565b60405180910390fd5b60006040518061018001604052808a73ffffffffffffffffffffffffffffffffffffffff168152602001600073ffffffffffffffffffffffffffffffffffffffff168152602001600015158152602001600015158152602001600081526020018981526020018881526020018781526020018681526020018581526020018481526020018381525090806001815401808255809150506001900390600052602060002090600a020160009091909190915060008201518160000160006101000a81548173ffffffffffffffffffffffffffffffffffffffff021916908373ffffffffffffffffffffffffffffffffffffffff16021790555060208201518160010160006101000a81548173ffffffffffffffffffffffffffffffffffffffff021916908373ffffffffffffffffffffffffffffffffffffffff16021790555060408201518160010160146101000a81548160ff02191690831515021790555060608201518160010160156101000a81548160ff0219169083151502179055506080820151816002015560a0820151816003015560c0820151816004015560e0820151816005019080519060200190610754929190612b56565b50610100820151816006019080519060200190610772929190612b56565b50610120820151816007019080519060200190610790929190612b56565b506101408201518160080190805190602001906107ae929190612b56565b506101608201518160090190805190602001906107cc929190612b56565b5050505050505050505050565b600560009054906101000a900473ffffffffffffffffffffffffffffffffffffffff1673ffffffffffffffffffffffffffffffffffffffff163273ffffffffffffffffffffffffffffffffffffffff1614610869576040517f08c379a00000000000000000000000000000000000000000000000000000000081526004016108609061367a565b60405180910390fd5b806000838154811061087e5761087d61369a565b5b90600052602060002090600a020160080190805190602001906108a2929190612b56565b505050565b600560009054906101000a900473ffffffffffffffffffffffffffffffffffffffff1673ffffffffffffffffffffffffffffffffffffffff163273ffffffffffffffffffffffffffffffffffffffff1614610937576040517f08c379a000000000000000000000000000000000000000000000000000000000815260040161092e9061367a565b60405180910390fd5b806000838154811061094c5761094b61369a565b5b90600052602060002090600a0201600401819055505050565b600560009054906101000a900473ffffffffffffffffffffffffffffffffffffffff1673ffffffffffffffffffffffffffffffffffffffff163273ffffffffffffffffffffffffffffffffffffffff16146109f5576040517f08c379a00000000000000000000000000000000000000000000000000000000081526004016109ec9061367a565b60405180910390fd5b8060008381548110610a0a57610a0961369a565b5b90600052602060002090600a02016007019080519060200190610a2e929190612b56565b505050565b81610a3d81611338565b73ffffffffffffffffffffffffffffffffffffffff163273ffffffffffffffffffffffffffffffffffffffff161480610ac35750600560009054906101000a900473ffffffffffffffffffffffffffffffffffffffff1673ffffffffffffffffffffffffffffffffffffffff163273ffffffffffffffffffffffffffffffffffffffff16145b610b02576040517f08c379a0000000000000000000000000000000000000000000000000000000008152600401610af990613715565b60405180910390fd5b8160008481548110610b1757610b1661369a565b5b90600052602060002090600a02016009019080519060200190610b3b929190612b56565b50505050565b600560009054906101000a900473ffffffffffffffffffffffffffffffffffffffff1673ffffffffffffffffffffffffffffffffffffffff163273ffffffffffffffffffffffffffffffffffffffff1614610bd1576040517f08c379a0000000000000000000000000000000000000000000000000000000008152600401610bc89061367a565b60405180910390fd5b8060008381548110610be657610be561369a565b5b90600052602060002090600a02016005019080519060200190610c0a929190612b56565b505050565b610c17612bdc565b60008281548110610c2b57610c2a61369a565b5b90600052602060002090600a0201604051806101800160405290816000820160009054906101000a900473ffffffffffffffffffffffffffffffffffffffff1673ffffffffffffffffffffffffffffffffffffffff1673ffffffffffffffffffffffffffffffffffffffff1681526020016001820160009054906101000a900473ffffffffffffffffffffffffffffffffffffffff1673ffffffffffffffffffffffffffffffffffffffff1673ffffffffffffffffffffffffffffffffffffffff1681526020016001820160149054906101000a900460ff161515151581526020016001820160159054906101000a900460ff16151515158152602001600282015481526020016003820154815260200160048201548152602001600582018054610d5590613764565b80601f0160208091040260200160405190810160405280929190818152602001828054610d8190613764565b8015610dce5780601f10610da357610100808354040283529160200191610dce565b820191906000526020600020905b815481529060010190602001808311610db157829003601f168201915b50505050508152602001600682018054610de790613764565b80601f0160208091040260200160405190810160405280929190818152602001828054610e1390613764565b8015610e605780601f10610e3557610100808354040283529160200191610e60565b820191906000526020600020905b815481529060010190602001808311610e4357829003601f168201915b50505050508152602001600782018054610e7990613764565b80601f0160208091040260200160405190810160405280929190818152602001828054610ea590613764565b8015610ef25780601f10610ec757610100808354040283529160200191610ef2565b820191906000526020600020905b815481529060010190602001808311610ed557829003601f168201915b50505050508152602001600882018054610f0b90613764565b80601f0160208091040260200160405190810160405280929190818152602001828054610f3790613764565b8015610f845780601f10610f5957610100808354040283529160200191610f84565b820191906000526020600020905b815481529060010190602001808311610f6757829003601f168201915b50505050508152602001600982018054610f9d90613764565b80601f0160208091040260200160405190810160405280929190818152602001828054610fc990613764565b80156110165780601f10610feb57610100808354040283529160200191611016565b820191906000526020600020905b815481529060010190602001808311610ff957829003601f168201915b5050505050815250509050919050565b8061103081611338565b73ffffffffffffffffffffffffffffffffffffffff163273ffffffffffffffffffffffffffffffffffffffff1614806110b65750600560009054906101000a900473ffffffffffffffffffffffffffffffffffffffff1673ffffffffffffffffffffffffffffffffffffffff163273ffffffffffffffffffffffffffffffffffffffff16145b6110f5576040517f08c379a00000000000000000000000000000000000000000000000000000000081526004016110ec90613715565b60405180910390fd5b826000838154811061110a5761110961369a565b5b90600052602060002090600a020160000160006101000a81548173ffffffffffffffffffffffffffffffffffffffff021916908373ffffffffffffffffffffffffffffffffffffffff160217905550505050565b600560009054906101000a900473ffffffffffffffffffffffffffffffffffffffff1673ffffffffffffffffffffffffffffffffffffffff163273ffffffffffffffffffffffffffffffffffffffff16146111ee576040517f08c379a00000000000000000000000000000000000000000000000000000000081526004016111e59061367a565b60405180910390fd5b80600083815481106112035761120261369a565b5b90600052602060002090600a0201600301819055505050565b80600081815481106112315761123061369a565b5b90600052602060002090600a020160010160009054906101000a900473ffffffffffffffffffffffffffffffffffffffff1673ffffffffffffffffffffffffffffffffffffffff163273ffffffffffffffffffffffffffffffffffffffff16146112d0576040517f08c379a00000000000000000000000000000000000000000000000000000000081526004016112c7906137e2565b60405180910390fd5b60008083815481106112e5576112e461369a565b5b90600052602060002090600a020160010160006101000a81548173ffffffffffffffffffffffffffffffffffffffff021916908373ffffffffffffffffffffffffffffffffffffffff1602179055505050565b600080828154811061134d5761134c61369a565b5b90600052602060002090600a020160000160009054906101000a900473ffffffffffffffffffffffffffffffffffffffff169050919050565b6113c5816040518060400160405280600481526020017f73616c6500000000000000000000000000000000000000000000000000000000815250611de6565b50565b806113d281611338565b73ffffffffffffffffffffffffffffffffffffffff163273ffffffffffffffffffffffffffffffffffffffff1614806114585750600560009054906101000a900473ffffffffffffffffffffffffffffffffffffffff1673ffffffffffffffffffffffffffffffffffffffff163273ffffffffffffffffffffffffffffffffffffffff16145b611497576040517f08c379a000000000000000000000000000000000000000000000000000000000815260040161148e90613715565b60405180910390fd5b600082815481106114ab576114aa61369a565b5b90600052602060002090600a02016002015442116114fe576040517f08c379a00000000000000000000000000000000000000000000000000000000081526004016114f59061384e565b60405180910390fd5b60008083815481106115135761151261369a565b5b90600052602060002090600a020160010160006101000a81548173ffffffffffffffffffffffffffffffffffffffff021916908373ffffffffffffffffffffffffffffffffffffffff1602179055505050565b6115a5816040518060400160405280600481526020017f72656e7400000000000000000000000000000000000000000000000000000000815250611de6565b50565b6115e882826040518060400160405280600481526020017f73616c65000000000000000000000000000000000000000000000000000000008152506123fb565b5050565b61162e82826040518060400160405280600481526020017f73616c650000000000000000000000000000000000000000000000000000000081525060016126b1565b5050565b60008160405160200161164591906138aa565b604051602081830303815290604052805190602001208360405160200161166c91906138aa565b6040516020818303038152906040528051906020012014905092915050565b6116cd82826040518060400160405280600481526020017f72656e740000000000000000000000000000000000000000000000000000000081525060016126b1565b5050565b61171182826040518060400160405280600481526020017f72656e74000000000000000000000000000000000000000000000000000000008152506123fb565b5050565b6117588160006040518060400160405280600481526020017f72656e740000000000000000000000000000000000000000000000000000000081525060006126b1565b60006004600083815260200190815260200160002060006101000a81548173ffffffffffffffffffffffffffffffffffffffff021916908373ffffffffffffffffffffffffffffffffffffffff16021790555050565b60606000805480602002602001604051908101604052809291908181526020016000905b82821015611bdf57838290600052602060002090600a0201604051806101800160405290816000820160009054906101000a900473ffffffffffffffffffffffffffffffffffffffff1673ffffffffffffffffffffffffffffffffffffffff1673ffffffffffffffffffffffffffffffffffffffff1681526020016001820160009054906101000a900473ffffffffffffffffffffffffffffffffffffffff1673ffffffffffffffffffffffffffffffffffffffff1673ffffffffffffffffffffffffffffffffffffffff1681526020016001820160149054906101000a900460ff161515151581526020016001820160159054906101000a900460ff1615151515815260200160028201548152602001600382015481526020016004820154815260200160058201805461190690613764565b80601f016020809104026020016040519081016040528092919081815260200182805461193290613764565b801561197f5780601f106119545761010080835404028352916020019161197f565b820191906000526020600020905b81548152906001019060200180831161196257829003601f168201915b5050505050815260200160068201805461199890613764565b80601f01602080910402602001604051908101604052809291908181526020018280546119c490613764565b8015611a115780601f106119e657610100808354040283529160200191611a11565b820191906000526020600020905b8154815290600101906020018083116119f457829003601f168201915b50505050508152602001600782018054611a2a90613764565b80601f0160208091040260200160405190810160405280929190818152602001828054611a5690613764565b8015611aa35780601f10611a7857610100808354040283529160200191611aa3565b820191906000526020600020905b815481529060010190602001808311611a8657829003601f168201915b50505050508152602001600882018054611abc90613764565b80601f0160208091040260200160405190810160405280929190818152602001828054611ae890613764565b8015611b355780601f10611b0a57610100808354040283529160200191611b35565b820191906000526020600020905b815481529060010190602001808311611b1857829003601f168201915b50505050508152602001600982018054611b4e90613764565b80601f0160208091040260200160405190810160405280929190818152602001828054611b7a90613764565b8015611bc75780601f10611b9c57610100808354040283529160200191611bc7565b820191906000526020600020905b815481529060010190602001808311611baa57829003601f168201915b505050505081525050815260200190600101906117d2565b50505050905090565b611c2b8160006040518060400160405280600481526020017f73616c650000000000000000000000000000000000000000000000000000000081525060006126b1565b60006003600083815260200190815260200160002060006101000a81548173ffffffffffffffffffffffffffffffffffffffff021916908373ffffffffffffffffffffffffffffffffffffffff16021790555050565b8060008181548110611c9657611c9561369a565b5b90600052602060002090600a020160010160009054906101000a900473ffffffffffffffffffffffffffffffffffffffff1673ffffffffffffffffffffffffffffffffffffffff163273ffffffffffffffffffffffffffffffffffffffff1614611d35576040517f08c379a0000000000000000000000000000000000000000000000000000000008152600401611d2c906137e2565b60405180910390fd5b6002600083815260200190815260200160002054341015611d8b576040517f08c379a0000000000000000000000000000000000000000000000000000000008152600401611d8290613933565b60405180910390fd5b611dd960008381548110611da257611da161369a565b5b90600052602060002090600a020160000160009054906101000a900473ffffffffffffffffffffffffffffffffffffffff16612978565b611de282612b14565b5050565b60006060611e29836040518060400160405280600481526020017f73616c6500000000000000000000000000000000000000000000000000000000815250611632565b156120ba576003600085815260200190815260200160002060009054906101000a900473ffffffffffffffffffffffffffffffffffffffff1673ffffffffffffffffffffffffffffffffffffffff163273ffffffffffffffffffffffffffffffffffffffff1614611ecf576040517f08c379a0000000000000000000000000000000000000000000000000000000008152600401611ec6906139c5565b60405180910390fd5b6001600085815260200190815260200160002054341015611f25576040517f08c379a0000000000000000000000000000000000000000000000000000000008152600401611f1c90613933565b60405180910390fd5b611f7360008581548110611f3c57611f3b61369a565b5b90600052602060002090600a020160000160009054906101000a900473ffffffffffffffffffffffffffffffffffffffff16612978565b6003600085815260200190815260200160002060009054906101000a900473ffffffffffffffffffffffffffffffffffffffff1660008581548110611fbb57611fba61369a565b5b90600052602060002090600a020160000160006101000a81548173ffffffffffffffffffffffffffffffffffffffff021916908373ffffffffffffffffffffffffffffffffffffffff160217905550600080858154811061201f5761201e61369a565b5b90600052602060002090600a020160010160156101000a81548160ff0219169083151502179055506003600085815260200190815260200160002060009054906101000a900473ffffffffffffffffffffffffffffffffffffffff1691506040518060400160405280600681526020017f626f75676874000000000000000000000000000000000000000000000000000081525090506123ba565b6120f9836040518060400160405280600481526020017f72656e7400000000000000000000000000000000000000000000000000000000815250611632565b156123b9576004600085815260200190815260200160002060009054906101000a900473ffffffffffffffffffffffffffffffffffffffff1673ffffffffffffffffffffffffffffffffffffffff163273ffffffffffffffffffffffffffffffffffffffff161461219f576040517f08c379a000000000000000000000000000000000000000000000000000000000815260040161219690613a57565b60405180910390fd5b60026000858152602001908152602001600020543410156121f5576040517f08c379a00000000000000000000000000000000000000000000000000000000081526004016121ec90613933565b60405180910390fd5b6122436000858154811061220c5761220b61369a565b5b90600052602060002090600a020160000160009054906101000a900473ffffffffffffffffffffffffffffffffffffffff16612978565b6004600085815260200190815260200160002060009054906101000a900473ffffffffffffffffffffffffffffffffffffffff166000858154811061228b5761228a61369a565b5b90600052602060002090600a020160010160006101000a81548173ffffffffffffffffffffffffffffffffffffffff021916908373ffffffffffffffffffffffffffffffffffffffff16021790555042600085815481106122ef576122ee61369a565b5b90600052602060002090600a02016002018190555061230d84612b14565b60008085815481106123225761232161369a565b5b90600052602060002090600a020160010160146101000a81548160ff0219169083151502179055506004600085815260200190815260200160002060009054906101000a900473ffffffffffffffffffffffffffffffffffffffff1691506040518060400160405280600681526020017f72656e746564000000000000000000000000000000000000000000000000000081525090505b5b7f71348baf719c3d8cf33c4bf5c88eee2b9f147a2c0c9473750dbfdb30631ad8448183346040516123ed93929190613b1e565b60405180910390a150505050565b8261240581611338565b73ffffffffffffffffffffffffffffffffffffffff163273ffffffffffffffffffffffffffffffffffffffff16148061248b5750600560009054906101000a900473ffffffffffffffffffffffffffffffffffffffff1673ffffffffffffffffffffffffffffffffffffffff163273ffffffffffffffffffffffffffffffffffffffff16145b6124ca576040517f08c379a00000000000000000000000000000000000000000000000000000000081526004016124c190613715565b60405180910390fd5b606061250b836040518060400160405280600481526020017f73616c6500000000000000000000000000000000000000000000000000000000815250611632565b1561259f57836003600087815260200190815260200160002060006101000a81548173ffffffffffffffffffffffffffffffffffffffff021916908373ffffffffffffffffffffffffffffffffffffffff1602179055506040518060400160405280600581526020017f6275796572000000000000000000000000000000000000000000000000000000815250905061266f565b6125de836040518060400160405280600481526020017f72656e7400000000000000000000000000000000000000000000000000000000815250611632565b1561266e57836004600087815260200190815260200160002060006101000a81548173ffffffffffffffffffffffffffffffffffffffff021916908373ffffffffffffffffffffffffffffffffffffffff1602179055506040518060400160405280600681526020017f74656e616e74000000000000000000000000000000000000000000000000000081525090505b5b7fa3c5a70e05e8a5a093a4a0dd1d743ad38ba02dff2c9ee9479d3383a69ed7dbcb8186866040516126a293929190613b5c565b60405180910390a15050505050565b836126bb81611338565b73ffffffffffffffffffffffffffffffffffffffff163273ffffffffffffffffffffffffffffffffffffffff1614806127415750600560009054906101000a900473ffffffffffffffffffffffffffffffffffffffff1673ffffffffffffffffffffffffffffffffffffffff163273ffffffffffffffffffffffffffffffffffffffff16145b612780576040517f08c379a000000000000000000000000000000000000000000000000000000000815260040161277790613715565b60405180910390fd5b6127bf836040518060400160405280600481526020017f73616c6500000000000000000000000000000000000000000000000000000000815250611632565b1561281e5783600160008781526020019081526020016000208190555081600086815481106127f1576127f061369a565b5b90600052602060002090600a020160010160156101000a81548160ff021916908315150217905550612936565b61285d836040518060400160405280600481526020017f72656e7400000000000000000000000000000000000000000000000000000000815250611632565b80156128da5750600073ffffffffffffffffffffffffffffffffffffffff16600086815481106128905761288f61369a565b5b90600052602060002090600a020160010160009054906101000a900473ffffffffffffffffffffffffffffffffffffffff1673ffffffffffffffffffffffffffffffffffffffff16145b1561293557836002600087815260200190815260200160002081905550816000868154811061290c5761290b61369a565b5b90600052602060002090600a020160010160146101000a81548160ff0219169083151502179055505b5b7feda648b634489dce0a8a6b16a2f57b854ff7baec60e175a564ecc4cec787da1183868660405161296993929190613b9a565b60405180910390a15050505050565b600560009054906101000a900473ffffffffffffffffffffffffffffffffffffffff1673ffffffffffffffffffffffffffffffffffffffff168173ffffffffffffffffffffffffffffffffffffffff161415612a3c57600660009054906101000a900473ffffffffffffffffffffffffffffffffffffffff1673ffffffffffffffffffffffffffffffffffffffff166108fc349081150290604051600060405180830381858888f19350505050158015612a36573d6000803e3d6000fd5b50612b11565b600660009054906101000a900473ffffffffffffffffffffffffffffffffffffffff1673ffffffffffffffffffffffffffffffffffffffff166108fc600a34612a859190613c36565b9081150290604051600060405180830381858888f19350505050158015612ab0573d6000803e3d6000fd5b508073ffffffffffffffffffffffffffffffffffffffff166108fc6009600a34612ada9190613c36565b612ae49190613c67565b9081150290604051600060405180830381858888f19350505050158015612b0f573d6000803e3d6000fd5b505b50565b62278d0060008281548110612b2c57612b2b61369a565b5b90600052602060002090600a02016002016000828254612b4c9190613cc1565b9250508190555050565b828054612b6290613764565b90600052602060002090601f016020900481019282612b845760008555612bcb565b82601f10612b9d57805160ff1916838001178555612bcb565b82800160010185558215612bcb579182015b82811115612bca578251825591602001919060010190612baf565b5b509050612bd89190612c6d565b5090565b604051806101800160405280600073ffffffffffffffffffffffffffffffffffffffff168152602001600073ffffffffffffffffffffffffffffffffffffffff16815260200160001515815260200160001515815260200160008152602001600081526020016000815260200160608152602001606081526020016060815260200160608152602001606081525090565b5b80821115612c86576000816000905550600101612c6e565b5090565b6000604051905090565b600080fd5b600080fd5b600073ffffffffffffffffffffffffffffffffffffffff82169050919050565b6000612cc982612c9e565b9050919050565b612cd981612cbe565b8114612ce457600080fd5b50565b600081359050612cf681612cd0565b92915050565b6000819050919050565b612d0f81612cfc565b8114612d1a57600080fd5b50565b600081359050612d2c81612d06565b92915050565b600080fd5b600080fd5b6000601f19601f8301169050919050565b7f4e487b7100000000000000000000000000000000000000000000000000000000600052604160045260246000fd5b612d8582612d3c565b810181811067ffffffffffffffff82111715612da457612da3612d4d565b5b80604052505050565b6000612db7612c8a565b9050612dc38282612d7c565b919050565b600067ffffffffffffffff821115612de357612de2612d4d565b5b612dec82612d3c565b9050602081019050919050565b82818337600083830152505050565b6000612e1b612e1684612dc8565b612dad565b905082815260208101848484011115612e3757612e36612d37565b5b612e42848285612df9565b509392505050565b600082601f830112612e5f57612e5e612d32565b5b8135612e6f848260208601612e08565b91505092915050565b600080600080600080600080610100898b031215612e9957612e98612c94565b5b6000612ea78b828c01612ce7565b9850506020612eb88b828c01612d1d565b9750506040612ec98b828c01612d1d565b965050606089013567ffffffffffffffff811115612eea57612ee9612c99565b5b612ef68b828c01612e4a565b955050608089013567ffffffffffffffff811115612f1757612f16612c99565b5b612f238b828c01612e4a565b94505060a089013567ffffffffffffffff811115612f4457612f43612c99565b5b612f508b828c01612e4a565b93505060c089013567ffffffffffffffff811115612f7157612f70612c99565b5b612f7d8b828c01612e4a565b92505060e089013567ffffffffffffffff811115612f9e57612f9d612c99565b5b612faa8b828c01612e4a565b9150509295985092959890939650565b60008060408385031215612fd157612fd0612c94565b5b6000612fdf85828601612d1d565b925050602083013567ffffffffffffffff81111561300057612fff612c99565b5b61300c85828601612e4a565b9150509250929050565b6000806040838503121561302d5761302c612c94565b5b600061303b85828601612d1d565b925050602061304c85828601612d1d565b9150509250929050565b60006020828403121561306c5761306b612c94565b5b600061307a84828501612d1d565b91505092915050565b61308c81612cbe565b82525050565b600061309d82612c9e565b9050919050565b6130ad81613092565b82525050565b60008115159050919050565b6130c8816130b3565b82525050565b6130d781612cfc565b82525050565b600081519050919050565b600082825260208201905092915050565b60005b838110156131175780820151818401526020810190506130fc565b83811115613126576000848401525b50505050565b6000613137826130dd565b61314181856130e8565b93506131518185602086016130f9565b61315a81612d3c565b840191505092915050565b60006101808301600083015161317e6000860182613083565b50602083015161319160208601826130a4565b5060408301516131a460408601826130bf565b5060608301516131b760608601826130bf565b5060808301516131ca60808601826130ce565b5060a08301516131dd60a08601826130ce565b5060c08301516131f060c08601826130ce565b5060e083015184820360e0860152613208828261312c565b915050610100830151848203610100860152613224828261312c565b915050610120830151848203610120860152613240828261312c565b91505061014083015184820361014086015261325c828261312c565b915050610160830151848203610160860152613278828261312c565b9150508091505092915050565b6000602082019050818103600083015261329f8184613165565b905092915050565b600080604083850312156132be576132bd612c94565b5b60006132cc85828601612ce7565b92505060206132dd85828601612d1d565b9150509250929050565b6132f081612cbe565b82525050565b600060208201905061330b60008301846132e7565b92915050565b6000806040838503121561332857613327612c94565b5b600061333685828601612d1d565b925050602061334785828601612ce7565b9150509250929050565b6000806040838503121561336857613367612c94565b5b600083013567ffffffffffffffff81111561338657613385612c99565b5b61339285828601612e4a565b925050602083013567ffffffffffffffff8111156133b3576133b2612c99565b5b6133bf85828601612e4a565b9150509250929050565b6133d2816130b3565b82525050565b60006020820190506133ed60008301846133c9565b92915050565b600081519050919050565b600082825260208201905092915050565b6000819050602082019050919050565b6000610180830160008301516134386000860182613083565b50602083015161344b60208601826130a4565b50604083015161345e60408601826130bf565b50606083015161347160608601826130bf565b50608083015161348460808601826130ce565b5060a083015161349760a08601826130ce565b5060c08301516134aa60c08601826130ce565b5060e083015184820360e08601526134c2828261312c565b9150506101008301518482036101008601526134de828261312c565b9150506101208301518482036101208601526134fa828261312c565b915050610140830151848203610140860152613516828261312c565b915050610160830151848203610160860152613532828261312c565b9150508091505092915050565b600061354b838361341f565b905092915050565b6000602082019050919050565b600061356b826133f3565b61357581856133fe565b9350836020820285016135878561340f565b8060005b858110156135c357848403895281516135a4858261353f565b94506135af83613553565b925060208a0199505060018101905061358b565b50829750879550505050505092915050565b600060208201905081810360008301526135ef8184613560565b905092915050565b600082825260208201905092915050565b7f4e6f742074686520676f7665726e6d656e74206f66207468652073797374656d60008201527f2100000000000000000000000000000000000000000000000000000000000000602082015250565b60006136646021836135f7565b915061366f82613608565b604082019050919050565b6000602082019050818103600083015261369381613657565b9050919050565b7f4e487b7100000000000000000000000000000000000000000000000000000000600052603260045260246000fd5b7f4e6f7420746865206f776e6572206f66207468652070726f7065727479210000600082015250565b60006136ff601e836135f7565b915061370a826136c9565b602082019050919050565b6000602082019050818103600083015261372e816136f2565b9050919050565b7f4e487b7100000000000000000000000000000000000000000000000000000000600052602260045260246000fd5b6000600282049050600182168061377c57607f821691505b602082108114156137905761378f613735565b5b50919050565b7f4e6f74207468652074656e616e74206f66207468652070726f70657274792100600082015250565b60006137cc601f836135f7565b91506137d782613796565b602082019050919050565b600060208201905081810360008301526137fb816137bf565b9050919050565b7f52656e742064617465206973206e6f7420647565210000000000000000000000600082015250565b60006138386015836135f7565b915061384382613802565b602082019050919050565b600060208201905081810360008301526138678161382b565b9050919050565b600081905092915050565b6000613884826130dd565b61388e818561386e565b935061389e8185602086016130f9565b80840191505092915050565b60006138b68284613879565b915081905092915050565b7f4e6f7420656e6f75676820657468657220737570706c69656420746f2074726160008201527f6e73616374696f6e210000000000000000000000000000000000000000000000602082015250565b600061391d6029836135f7565b9150613928826138c1565b604082019050919050565b6000602082019050818103600083015261394c81613910565b9050919050565b7f4e6f742074686520617070726f766564206275796572206f662074686520707260008201527f6f70657274792100000000000000000000000000000000000000000000000000602082015250565b60006139af6027836135f7565b91506139ba82613953565b604082019050919050565b600060208201905081810360008301526139de816139a2565b9050919050565b7f4e6f742074686520617070726f7665642074656e616e74206f6620746865207060008201527f726f706572747921000000000000000000000000000000000000000000000000602082015250565b6000613a416028836135f7565b9150613a4c826139e5565b604082019050919050565b60006020820190508181036000830152613a7081613a34565b9050919050565b6000613a82826130dd565b613a8c81856135f7565b9350613a9c8185602086016130f9565b613aa581612d3c565b840191505092915050565b6000819050919050565b6000613ad5613ad0613acb84612c9e565b613ab0565b612c9e565b9050919050565b6000613ae782613aba565b9050919050565b6000613af982613adc565b9050919050565b613b0981613aee565b82525050565b613b1881612cfc565b82525050565b60006060820190508181036000830152613b388186613a77565b9050613b476020830185613b00565b613b546040830184613b0f565b949350505050565b60006060820190508181036000830152613b768186613a77565b9050613b856020830185613b0f565b613b926040830184613b00565b949350505050565b60006060820190508181036000830152613bb48186613a77565b9050613bc36020830185613b0f565b613bd06040830184613b0f565b949350505050565b7f4e487b7100000000000000000000000000000000000000000000000000000000600052601260045260246000fd5b7f4e487b7100000000000000000000000000000000000000000000000000000000600052601160045260246000fd5b6000613c4182612cfc565b9150613c4c83612cfc565b925082613c5c57613c5b613bd8565b5b828204905092915050565b6000613c7282612cfc565b9150613c7d83612cfc565b9250817fffffffffffffffffffffffffffffffffffffffffffffffffffffffffffffffff0483118215151615613cb657613cb5613c07565b5b828202905092915050565b6000613ccc82612cfc565b9150613cd783612cfc565b9250827fffffffffffffffffffffffffffffffffffffffffffffffffffffffffffffffff03821115613d0c57613d0b613c07565b5b82820190509291505056fea2646970667358221220fc72be40b539932bc545863137a0a645fd7de9f7f5de9b16c61719b880372d9964736f6c634300080b0033",
  "immutableReferences": {},
  "source": "// SPDX-License-Identifier: GPL-3.0\r\n\r\npragma solidity >=0.8.0 <0.9.0;\r\n\r\ncontract HomeChain\r\n{\r\n    struct RealEstate \r\n    {\r\n        address payable owner;\r\n        address tenant;\r\n        bool forRent;\r\n        bool forSale;\r\n        uint payday;\r\n        uint256 squaring;\r\n        uint256 floor;\r\n        string construction;\r\n        string city;\r\n        string neighborhood;\r\n        string description;\r\n        string phone;\r\n    }\r\n\r\n    RealEstate[] private estates;\r\n    mapping(uint => uint) private pricesSale;\r\n    mapping(uint => uint) private pricesRent;\r\n    mapping(uint => address payable) private buyers;\r\n    mapping(uint => address payable) private tenants;\r\n\r\n    address private government;\r\n    address payable private governmentWallet;\r\n\r\n    event Announcement(\r\n        string ann,\r\n        uint id,\r\n        uint prices\r\n    );\r\n\r\n    event Approval(\r\n        string prs,\r\n        uint id,\r\n        address buyer\r\n    );\r\n\r\n    event PropertyUpdate(\r\n        string act,\r\n        address buyer,\r\n        uint id\r\n    );\r\n\r\n    constructor(address payable _governmentWallet)\r\n    {\r\n        government = msg.sender;\r\n        governmentWallet = _governmentWallet;\r\n    }\r\n\r\n    modifier onlyGovernment()\r\n    {\r\n        require(tx.origin == government, \"Not the government of the system!\");\r\n        _;\r\n    }\r\n\r\n    modifier onlyOwner(uint id)\r\n    {\r\n        require(tx.origin == getOwnerById(id) || tx.origin == government, \"Not the owner of the property!\");\r\n        _;\r\n    }\r\n\r\n    modifier onlyTenant(uint id)\r\n    {\r\n        require(tx.origin == estates[id].tenant, \"Not the tenant of the property!\");\r\n        _;\r\n    }\r\n\r\n    function addEstate(address payable _owner, \r\n                        uint _squaring,\r\n                        uint _floor, \r\n                        string memory _construction, \r\n                        string memory _city, \r\n                        string memory _neighborhood, \r\n                        string memory _description, \r\n                        string memory _phone) \r\n                        public onlyGovernment\r\n    {  \r\n        estates.push(RealEstate(_owner, address(0), false, false, 0, _squaring, _floor, _construction, _city, _neighborhood, _description, _phone));\r\n    }\r\n\r\n    function setSquaring(uint id, uint _squaring) public onlyGovernment\r\n    {\r\n        estates[id].squaring = _squaring; \r\n    }\r\n\r\n    function setFloor(uint id, uint _floor) public onlyGovernment\r\n    {\r\n        estates[id].floor = _floor; \r\n    }\r\n\r\n    function setConstruction(uint id, string memory _construction) public onlyGovernment\r\n    {\r\n        estates[id].construction = _construction; \r\n    }\r\n\r\n    function setNeighborhood(uint id, string memory _neighborhood) public onlyGovernment\r\n    {\r\n        estates[id].neighborhood = _neighborhood; \r\n    }\r\n\r\n    function setDescription(uint id, string memory _description) public onlyGovernment\r\n    {\r\n        estates[id].description = _description; \r\n    }\r\n\r\n    function setPhone(uint id, string memory _phone) public onlyOwner(id)\r\n    {\r\n        estates[id].phone = _phone; \r\n    }\r\n\r\n    function getEstateById(uint id) public view returns(RealEstate memory)\r\n    {\r\n        return estates[id];\r\n    }\r\n\r\n    function changeOwner(address payable _newOwner, uint id) public onlyOwner(id)\r\n    {  \r\n        estates[id].owner = _newOwner;\r\n    }\r\n    \r\n    function getOwnerById(uint id) public view returns (address payable)\r\n    {\r\n        return estates[id].owner;\r\n    }\r\n    \r\n    function getEstates() public view returns (RealEstate[] memory)\r\n    {\r\n        return estates;\r\n    }\r\n\r\n\r\n    function announceEstateFor(uint id, uint price, string memory option, bool b) private onlyOwner(id)\r\n    {\r\n        if(compareStrings(option, \"sale\"))\r\n        {\r\n            pricesSale[id] = price;\r\n            estates[id].forSale = b; \r\n        }\r\n        else if(compareStrings(option, \"rent\") && estates[id].tenant == address(0))\r\n        {   \r\n            pricesRent[id] = price; \r\n            estates[id].forRent = b;\r\n        }\r\n\r\n        emit Announcement(option, id, price);\r\n    }\r\n\r\n    function announceEstateForSale(uint id, uint price) public \r\n    {\r\n        announceEstateFor(id, price, \"sale\", true);\r\n    }\r\n\r\n    function announceEstateForRent(uint id, uint price) public \r\n    {\r\n        announceEstateFor(id, price, \"rent\", true);\r\n    }\r\n\r\n    function announceEstateNotForSale(uint id) public \r\n    {\r\n        announceEstateFor(id, 0, \"sale\", false);\r\n        buyers[id] = payable(address(0));\r\n    }\r\n\r\n    function announceEstateNotForRent(uint id) public \r\n    {\r\n        announceEstateFor(id, 0, \"rent\", false);\r\n        tenants[id] = payable(address(0));\r\n    }\r\n\r\n    function compareStrings(string memory a, string memory b) public pure returns (bool)\r\n    {\r\n        return (keccak256(abi.encodePacked((a))) == keccak256(abi.encodePacked((b))));\r\n    } \r\n\r\n    function approve(uint id, address payable buyer, string memory option) private  onlyOwner(id)\r\n    {\r\n        string memory prs;\r\n        if(compareStrings(option, \"sale\"))\r\n        {\r\n            buyers[id] = buyer;\r\n            prs = \"buyer\";\r\n        }\r\n        else if(compareStrings(option, \"rent\"))\r\n        {\r\n            tenants[id] = buyer;\r\n            prs = \"tenant\";\r\n        }\r\n        emit Approval(prs, id, buyer);\r\n    }\r\n\r\n    function approveBuyer(uint id, address payable buyer) public \r\n    {\r\n        approve(id, buyer, \"sale\");\r\n    }\r\n\r\n    function approveTenant(uint id, address payable tenant) public \r\n    {\r\n        approve(id, tenant, \"rent\");\r\n    }\r\n\r\n    function updateProperty(uint id, string memory option) private\r\n    {\r\n        address payable adr;\r\n        string memory action;\r\n        if(compareStrings(option, \"sale\"))\r\n        {\r\n            require(tx.origin == buyers[id], \"Not the approved buyer of the property!\");\r\n            require(msg.value >= pricesSale[id], \"Not enough ether supplied to transaction!\");\r\n            payTaxes(estates[id].owner);\r\n            estates[id].owner = buyers[id];\r\n            estates[id].forSale = false;\r\n            adr = buyers[id];\r\n            action = \"bought\";\r\n        }\r\n        else if(compareStrings(option, \"rent\"))\r\n        {\r\n            require(tx.origin == tenants[id], \"Not the approved tenant of the property!\");\r\n            require(msg.value >= pricesRent[id], \"Not enough ether supplied to transaction!\");\r\n            payTaxes(estates[id].owner);\r\n            estates[id].tenant = tenants[id];\r\n            estates[id].payday = block.timestamp;\r\n            updateRentDate(id);\r\n            estates[id].forRent = false;\r\n            adr = tenants[id];\r\n            action = \"rented\";\r\n        }\r\n        \r\n        emit PropertyUpdate(action, adr, msg.value);\r\n    }\r\n\r\n    function purchaseProperty(uint id) public payable\r\n    {\r\n        updateProperty(id, \"sale\");\r\n    }\r\n\r\n    function rentProperty(uint id) public payable\r\n    {\r\n        updateProperty(id, \"rent\");\r\n    }\r\n\r\n    function leave(uint id) public onlyTenant(id)\r\n    {\r\n        estates[id].tenant = address(0);\r\n    }\r\n\r\n    function payRent(uint id) public payable onlyTenant(id)\r\n    {\r\n        require(msg.value >= pricesRent[id], \"Not enough ether supplied to transaction!\");\r\n        payTaxes(estates[id].owner);\r\n        updateRentDate(id);\r\n    }\r\n    \r\n    function updateRentDate(uint id) private\r\n    {\r\n        estates[id].payday += 2592000;\r\n    }\r\n\r\n    function payTaxes(address payable reciever) private\r\n    {\r\n        if(reciever == government)\r\n        {\r\n            governmentWallet.transfer(msg.value);\r\n        }\r\n        else\r\n        {\r\n            governmentWallet.transfer(msg.value/10);\r\n            reciever.transfer((msg.value/10)*9);\r\n        }\r\n    }\r\n\r\n    function removeTenant(uint id) public onlyOwner(id)\r\n    {\r\n        require(block.timestamp > estates[id].payday, \"Rent date is not due!\");\r\n        estates[id].tenant = address(0);\r\n    }\r\n}\r\n\r\n",
  "sourcePath": "D:\\CompSci\\blockchain2\\home-chain\\home-chain-contract\\contracts\\HomeChain.sol",
  "compiler": {
    "name": "solc",
    "version": "0.8.11+commit.d7f03943.Emscripten.clang"
  },
  "schemaVersion": "3.4.7",
  "updatedAt": "2022-06-04T19:08:17.495Z",
  "networkType": "ethereum",
  "devdoc": {
    "kind": "dev",
    "methods": {},
    "version": 1
  },
  "userdoc": {
    "kind": "user",
    "methods": {},
    "version": 1
  }
}