{
  "contractName": "HomeChainProduction",
  "abi": [
    {
      "inputs": [
        {
          "internalType": "address payable",
          "name": "_governmentWallet",
          "type": "address"
        }
      ],
      "stateMutability": "nonpayable",
      "type": "constructor"
    },
    {
      "anonymous": false,
      "inputs": [
        {
          "indexed": false,
          "internalType": "string",
          "name": "ann",
          "type": "string"
        },
        {
          "indexed": false,
          "internalType": "uint256",
          "name": "id",
          "type": "uint256"
        },
        {
          "indexed": false,
          "internalType": "uint256",
          "name": "prices",
          "type": "uint256"
        }
      ],
      "name": "Announcement",
      "type": "event"
    },
    {
      "anonymous": false,
      "inputs": [
        {
          "indexed": false,
          "internalType": "string",
          "name": "prs",
          "type": "string"
        },
        {
          "indexed": false,
          "internalType": "uint256",
          "name": "id",
          "type": "uint256"
        },
        {
          "indexed": false,
          "internalType": "address",
          "name": "buyer",
          "type": "address"
        }
      ],
      "name": "Approval",
      "type": "event"
    },
    {
      "anonymous": false,
      "inputs": [
        {
          "indexed": false,
          "internalType": "string",
          "name": "func",
          "type": "string"
        },
        {
          "indexed": false,
          "internalType": "address",
          "name": "sender",
          "type": "address"
        },
        {
          "indexed": false,
          "internalType": "uint256",
          "name": "value",
          "type": "uint256"
        },
        {
          "indexed": false,
          "internalType": "bytes",
          "name": "data",
          "type": "bytes"
        }
      ],
      "name": "Log",
      "type": "event"
    },
    {
      "anonymous": false,
      "inputs": [
        {
          "indexed": false,
          "internalType": "string",
          "name": "act",
          "type": "string"
        },
        {
          "indexed": false,
          "internalType": "address",
          "name": "buyer",
          "type": "address"
        },
        {
          "indexed": false,
          "internalType": "uint256",
          "name": "id",
          "type": "uint256"
        }
      ],
      "name": "PropertyUpdate",
      "type": "event"
    },
    {
      "stateMutability": "payable",
      "type": "fallback",
      "payable": true
    },
    {
      "stateMutability": "payable",
      "type": "receive",
      "payable": true
    },
    {
      "inputs": [
        {
          "internalType": "address payable",
          "name": "_owner",
          "type": "address"
        },
        {
          "internalType": "uint256",
          "name": "_squaring",
          "type": "uint256"
        },
        {
          "internalType": "uint256",
          "name": "_floor",
          "type": "uint256"
        },
        {
          "internalType": "string",
          "name": "_construction",
          "type": "string"
        },
        {
          "internalType": "string",
          "name": "_city",
          "type": "string"
        },
        {
          "internalType": "string",
          "name": "_neighborhood",
          "type": "string"
        },
        {
          "internalType": "string",
          "name": "_description",
          "type": "string"
        },
        {
          "internalType": "string",
          "name": "_phone",
          "type": "string"
        }
      ],
      "name": "addEstate",
      "outputs": [],
      "stateMutability": "nonpayable",
      "type": "function"
    },
    {
      "inputs": [
        {
          "internalType": "uint256",
          "name": "id",
          "type": "uint256"
        },
        {
          "internalType": "uint256",
          "name": "_squaring",
          "type": "uint256"
        }
      ],
      "name": "setSquaring",
      "outputs": [],
      "stateMutability": "nonpayable",
      "type": "function"
    },
    {
      "inputs": [
        {
          "internalType": "uint256",
          "name": "id",
          "type": "uint256"
        },
        {
          "internalType": "uint256",
          "name": "_floor",
          "type": "uint256"
        }
      ],
      "name": "setFloor",
      "outputs": [],
      "stateMutability": "nonpayable",
      "type": "function"
    },
    {
      "inputs": [
        {
          "internalType": "uint256",
          "name": "id",
          "type": "uint256"
        },
        {
          "internalType": "string",
          "name": "_construction",
          "type": "string"
        }
      ],
      "name": "setConstruction",
      "outputs": [],
      "stateMutability": "nonpayable",
      "type": "function"
    },
    {
      "inputs": [
        {
          "internalType": "uint256",
          "name": "id",
          "type": "uint256"
        },
        {
          "internalType": "string",
          "name": "_neighborhood",
          "type": "string"
        }
      ],
      "name": "setNeighborhood",
      "outputs": [],
      "stateMutability": "nonpayable",
      "type": "function"
    },
    {
      "inputs": [
        {
          "internalType": "uint256",
          "name": "id",
          "type": "uint256"
        },
        {
          "internalType": "string",
          "name": "_description",
          "type": "string"
        }
      ],
      "name": "setDescription",
      "outputs": [],
      "stateMutability": "nonpayable",
      "type": "function"
    },
    {
      "inputs": [
        {
          "internalType": "uint256",
          "name": "id",
          "type": "uint256"
        },
        {
          "internalType": "string",
          "name": "_phone",
          "type": "string"
        }
      ],
      "name": "setPhone",
      "outputs": [],
      "stateMutability": "nonpayable",
      "type": "function"
    },
    {
      "inputs": [
        {
          "internalType": "uint256",
          "name": "id",
          "type": "uint256"
        }
      ],
      "name": "getEstateById",
      "outputs": [
        {
          "components": [
            {
              "internalType": "address payable",
              "name": "owner",
              "type": "address"
            },
            {
              "internalType": "address",
              "name": "tenant",
              "type": "address"
            },
            {
              "internalType": "bool",
              "name": "forRent",
              "type": "bool"
            },
            {
              "internalType": "bool",
              "name": "forSale",
              "type": "bool"
            },
            {
              "internalType": "uint256",
              "name": "payday",
              "type": "uint256"
            },
            {
              "internalType": "uint256",
              "name": "squaring",
              "type": "uint256"
            },
            {
              "internalType": "uint256",
              "name": "floor",
              "type": "uint256"
            },
            {
              "internalType": "string",
              "name": "construction",
              "type": "string"
            },
            {
              "internalType": "string",
              "name": "city",
              "type": "string"
            },
            {
              "internalType": "string",
              "name": "neighborhood",
              "type": "string"
            },
            {
              "internalType": "string",
              "name": "description",
              "type": "string"
            },
            {
              "internalType": "string",
              "name": "phone",
              "type": "string"
            }
          ],
          "internalType": "struct HomeChainProduction.RealEstate",
          "name": "",
          "type": "tuple"
        }
      ],
      "stateMutability": "view",
      "type": "function",
      "constant": true
    },
    {
      "inputs": [
        {
          "internalType": "address payable",
          "name": "_newOwner",
          "type": "address"
        },
        {
          "internalType": "uint256",
          "name": "id",
          "type": "uint256"
        }
      ],
      "name": "changeOwner",
      "outputs": [],
      "stateMutability": "nonpayable",
      "type": "function"
    },
    {
      "inputs": [
        {
          "internalType": "uint256",
          "name": "id",
          "type": "uint256"
        }
      ],
      "name": "getOwnerById",
      "outputs": [
        {
          "internalType": "address payable",
          "name": "",
          "type": "address"
        }
      ],
      "stateMutability": "view",
      "type": "function",
      "constant": true
    },
    {
      "inputs": [
        {
          "internalType": "uint256",
          "name": "id",
          "type": "uint256"
        }
      ],
      "name": "getPricesSaleOfEstate",
      "outputs": [
        {
          "internalType": "uint256",
          "name": "",
          "type": "uint256"
        }
      ],
      "stateMutability": "view",
      "type": "function",
      "constant": true
    },
    {
      "inputs": [
        {
          "internalType": "uint256",
          "name": "id",
          "type": "uint256"
        }
      ],
      "name": "getPricesRentOfEstate",
      "outputs": [
        {
          "internalType": "uint256",
          "name": "",
          "type": "uint256"
        }
      ],
      "stateMutability": "view",
      "type": "function",
      "constant": true
    },
    {
      "inputs": [
        {
          "internalType": "uint256",
          "name": "id",
          "type": "uint256"
        }
      ],
      "name": "getAddressOfApprovedBuyer",
      "outputs": [
        {
          "internalType": "address payable",
          "name": "",
          "type": "address"
        }
      ],
      "stateMutability": "view",
      "type": "function",
      "constant": true
    },
    {
      "inputs": [
        {
          "internalType": "uint256",
          "name": "id",
          "type": "uint256"
        }
      ],
      "name": "getAddressOfApprovedTenant",
      "outputs": [
        {
          "internalType": "address payable",
          "name": "",
          "type": "address"
        }
      ],
      "stateMutability": "view",
      "type": "function",
      "constant": true
    },
    {
      "inputs": [],
      "name": "getEstates",
      "outputs": [
        {
          "components": [
            {
              "internalType": "address payable",
              "name": "owner",
              "type": "address"
            },
            {
              "internalType": "address",
              "name": "tenant",
              "type": "address"
            },
            {
              "internalType": "bool",
              "name": "forRent",
              "type": "bool"
            },
            {
              "internalType": "bool",
              "name": "forSale",
              "type": "bool"
            },
            {
              "internalType": "uint256",
              "name": "payday",
              "type": "uint256"
            },
            {
              "internalType": "uint256",
              "name": "squaring",
              "type": "uint256"
            },
            {
              "internalType": "uint256",
              "name": "floor",
              "type": "uint256"
            },
            {
              "internalType": "string",
              "name": "construction",
              "type": "string"
            },
            {
              "internalType": "string",
              "name": "city",
              "type": "string"
            },
            {
              "internalType": "string",
              "name": "neighborhood",
              "type": "string"
            },
            {
              "internalType": "string",
              "name": "description",
              "type": "string"
            },
            {
              "internalType": "string",
              "name": "phone",
              "type": "string"
            }
          ],
          "internalType": "struct HomeChainProduction.RealEstate[]",
          "name": "",
          "type": "tuple[]"
        }
      ],
      "stateMutability": "view",
      "type": "function",
      "constant": true
    },
    {
      "inputs": [
        {
          "internalType": "uint256",
          "name": "id",
          "type": "uint256"
        },
        {
          "internalType": "uint256",
          "name": "price",
          "type": "uint256"
        }
      ],
      "name": "announceEstateForSale",
      "outputs": [],
      "stateMutability": "nonpayable",
      "type": "function"
    },
    {
      "inputs": [
        {
          "internalType": "uint256",
          "name": "id",
          "type": "uint256"
        },
        {
          "internalType": "uint256",
          "name": "price",
          "type": "uint256"
        }
      ],
      "name": "announceEstateForRent",
      "outputs": [],
      "stateMutability": "nonpayable",
      "type": "function"
    },
    {
      "inputs": [
        {
          "internalType": "uint256",
          "name": "id",
          "type": "uint256"
        }
      ],
      "name": "announceEstateNotForSale",
      "outputs": [],
      "stateMutability": "nonpayable",
      "type": "function"
    },
    {
      "inputs": [
        {
          "internalType": "uint256",
          "name": "id",
          "type": "uint256"
        }
      ],
      "name": "announceEstateNotForRent",
      "outputs": [],
      "stateMutability": "nonpayable",
      "type": "function"
    },
    {
      "inputs": [
        {
          "internalType": "string",
          "name": "a",
          "type": "string"
        },
        {
          "internalType": "string",
          "name": "b",
          "type": "string"
        }
      ],
      "name": "compareStrings",
      "outputs": [
        {
          "internalType": "bool",
          "name": "",
          "type": "bool"
        }
      ],
      "stateMutability": "pure",
      "type": "function",
      "constant": true
    },
    {
      "inputs": [
        {
          "internalType": "uint256",
          "name": "id",
          "type": "uint256"
        },
        {
          "internalType": "address payable",
          "name": "buyer",
          "type": "address"
        }
      ],
      "name": "approveBuyer",
      "outputs": [],
      "stateMutability": "nonpayable",
      "type": "function"
    },
    {
      "inputs": [
        {
          "internalType": "uint256",
          "name": "id",
          "type": "uint256"
        },
        {
          "internalType": "address payable",
          "name": "tenant",
          "type": "address"
        }
      ],
      "name": "approveTenant",
      "outputs": [],
      "stateMutability": "nonpayable",
      "type": "function"
    },
    {
      "inputs": [
        {
          "internalType": "uint256",
          "name": "id",
          "type": "uint256"
        }
      ],
      "name": "purchaseProperty",
      "outputs": [],
      "stateMutability": "payable",
      "type": "function",
      "payable": true
    },
    {
      "inputs": [
        {
          "internalType": "uint256",
          "name": "id",
          "type": "uint256"
        }
      ],
      "name": "rentProperty",
      "outputs": [],
      "stateMutability": "payable",
      "type": "function",
      "payable": true
    },
    {
      "inputs": [
        {
          "internalType": "uint256",
          "name": "id",
          "type": "uint256"
        }
      ],
      "name": "leave",
      "outputs": [],
      "stateMutability": "nonpayable",
      "type": "function"
    },
    {
      "inputs": [
        {
          "internalType": "uint256",
          "name": "id",
          "type": "uint256"
        }
      ],
      "name": "payRent",
      "outputs": [],
      "stateMutability": "payable",
      "type": "function",
      "payable": true
    },
    {
      "inputs": [
        {
          "internalType": "uint256",
          "name": "id",
          "type": "uint256"
        }
      ],
      "name": "removeTenant",
      "outputs": [],
      "stateMutability": "nonpayable",
      "type": "function"
    }
  ],
  "bytecode": "0x60806040523480156200001157600080fd5b50604051620042b8380380620042b883398181016040528101906200003791906200012a565b33600560006101000a81548173ffffffffffffffffffffffffffffffffffffffff021916908373ffffffffffffffffffffffffffffffffffffffff16021790555080600660006101000a81548173ffffffffffffffffffffffffffffffffffffffff021916908373ffffffffffffffffffffffffffffffffffffffff160217905550506200015c565b600080fd5b600073ffffffffffffffffffffffffffffffffffffffff82169050919050565b6000620000f282620000c5565b9050919050565b6200010481620000e5565b81146200011057600080fd5b50565b6000815190506200012481620000f9565b92915050565b600060208284031215620001435762000142620000c0565b5b6000620001538482850162000113565b91505092915050565b61414c806200016c6000396000f3fe6080604052600436106101a05760003560e01c806376bf001c116100ec578063c54e31b11161008a578063d40c48c211610064578063d40c48c21461062d578063d40eaa8a14610658578063d9e8843f14610681578063df014e6b1461069d576101e0565b8063c54e31b1146105b2578063c62f0ac4146105db578063c7d9380014610604576101e0565b80639d36ab6c116100c65780639d36ab6c146105075780639d8ede9714610523578063ad7f1ed31461054c578063bed34bba14610575576101e0565b806376bf001c1461048557806379d9c439146104c25780637dd2e993146104de576101e0565b80634da07e191161015957806356df3db11161013357806356df3db1146103cd5780635ec1fc93146103f657806367dfd4c91461041f5780636d573e9714610448576101e0565b80634da07e191461033e5780635393d78d14610367578063558ee2a914610390576101e0565b8063082ce716146102205780631e5559d3146102495780632a6446ca146102865780632e98a024146102af57806331a4f8d6146102ec5780633d0e653a14610315576101e0565b366101e0577ff7f75251dee7d7fc22deac3247729ebe7c86541f35930bf10c2a4207479a3b6c33346040516101d6929190612ffb565b60405180910390a1005b7ff7f75251dee7d7fc22deac3247729ebe7c86541f35930bf10c2a4207479a3b6c33346000366040516102169493929190613097565b60405180910390a1005b34801561022c57600080fd5b506102476004803603810190610242919061328e565b6106da565b005b34801561025557600080fd5b50610270600480360381019061026b91906133d0565b6109a8565b60405161027d91906133fd565b60405180910390f35b34801561029257600080fd5b506102ad60048036038101906102a89190613418565b6109c5565b005b3480156102bb57600080fd5b506102d660048036038101906102d191906133d0565b610a93565b6040516102e39190613483565b60405180910390f35b3480156102f857600080fd5b50610313600480360381019061030e919061349e565b610ad0565b005b34801561032157600080fd5b5061033c60048036038101906103379190613418565b610b8e565b005b34801561034a57600080fd5b5061036560048036038101906103609190613418565b610c5c565b005b34801561037357600080fd5b5061038e60048036038101906103899190613418565b610d6a565b005b34801561039c57600080fd5b506103b760048036038101906103b291906133d0565b610e38565b6040516103c491906136ce565b60405180910390f35b3480156103d957600080fd5b506103f460048036038101906103ef91906136f0565b61124f565b005b34801561040257600080fd5b5061041d6004803603810190610418919061349e565b611387565b005b34801561042b57600080fd5b50610446600480360381019061044191906133d0565b611445565b005b34801561045457600080fd5b5061046f600480360381019061046a91906133d0565b611561565b60405161047c9190613483565b60405180910390f35b34801561049157600080fd5b506104ac60048036038101906104a791906133d0565b61159e565b6040516104b99190613483565b60405180910390f35b6104dc60048036038101906104d791906133d0565b6115ec565b005b3480156104ea57600080fd5b50610505600480360381019061050091906133d0565b61162e565b005b610521600480360381019061051c91906133d0565b6117cc565b005b34801561052f57600080fd5b5061054a60048036038101906105459190613730565b61180e565b005b34801561055857600080fd5b50610573600480360381019061056e919061349e565b611852565b005b34801561058157600080fd5b5061059c60048036038101906105979190613770565b611898565b6040516105a991906137f7565b60405180910390f35b3480156105be57600080fd5b506105d960048036038101906105d4919061349e565b6118f1565b005b3480156105e757600080fd5b5061060260048036038101906105fd9190613730565b611937565b005b34801561061057600080fd5b5061062b600480360381019061062691906133d0565b61197b565b005b34801561063957600080fd5b50610642611a14565b60405161064f91906139f4565b60405180910390f35b34801561066457600080fd5b5061067f600480360381019061067a91906133d0565b611e4e565b005b61069b600480360381019061069691906133d0565b611ee7565b005b3480156106a957600080fd5b506106c460048036038101906106bf91906133d0565b61204c565b6040516106d191906133fd565b60405180910390f35b600560009054906101000a900473ffffffffffffffffffffffffffffffffffffffff1673ffffffffffffffffffffffffffffffffffffffff163273ffffffffffffffffffffffffffffffffffffffff161461076a576040517f08c379a000000000000000000000000000000000000000000000000000000000815260040161076190613a88565b60405180910390fd5b60006040518061018001604052808a73ffffffffffffffffffffffffffffffffffffffff168152602001600073ffffffffffffffffffffffffffffffffffffffff168152602001600015158152602001600015158152602001600081526020018981526020018881526020018781526020018681526020018581526020018481526020018381525090806001815401808255809150506001900390600052602060002090600a020160009091909190915060008201518160000160006101000a81548173ffffffffffffffffffffffffffffffffffffffff021916908373ffffffffffffffffffffffffffffffffffffffff16021790555060208201518160010160006101000a81548173ffffffffffffffffffffffffffffffffffffffff021916908373ffffffffffffffffffffffffffffffffffffffff16021790555060408201518160010160146101000a81548160ff02191690831515021790555060608201518160010160156101000a81548160ff0219169083151502179055506080820151816002015560a0820151816003015560c0820151816004015560e0820151816005019080519060200190610923929190612dd9565b50610100820151816006019080519060200190610941929190612dd9565b5061012082015181600701908051906020019061095f929190612dd9565b5061014082015181600801908051906020019061097d929190612dd9565b5061016082015181600901908051906020019061099b929190612dd9565b5050505050505050505050565b600060026000838152602001908152602001600020549050919050565b600560009054906101000a900473ffffffffffffffffffffffffffffffffffffffff1673ffffffffffffffffffffffffffffffffffffffff163273ffffffffffffffffffffffffffffffffffffffff1614610a55576040517f08c379a0000000000000000000000000000000000000000000000000000000008152600401610a4c90613a88565b60405180910390fd5b8060008381548110610a6a57610a69613aa8565b5b90600052602060002090600a02016008019080519060200190610a8e929190612dd9565b505050565b60006004600083815260200190815260200160002060009054906101000a900473ffffffffffffffffffffffffffffffffffffffff169050919050565b600560009054906101000a900473ffffffffffffffffffffffffffffffffffffffff1673ffffffffffffffffffffffffffffffffffffffff163273ffffffffffffffffffffffffffffffffffffffff1614610b60576040517f08c379a0000000000000000000000000000000000000000000000000000000008152600401610b5790613a88565b60405180910390fd5b8060008381548110610b7557610b74613aa8565b5b90600052602060002090600a0201600401819055505050565b600560009054906101000a900473ffffffffffffffffffffffffffffffffffffffff1673ffffffffffffffffffffffffffffffffffffffff163273ffffffffffffffffffffffffffffffffffffffff1614610c1e576040517f08c379a0000000000000000000000000000000000000000000000000000000008152600401610c1590613a88565b60405180910390fd5b8060008381548110610c3357610c32613aa8565b5b90600052602060002090600a02016007019080519060200190610c57929190612dd9565b505050565b81610c668161159e565b73ffffffffffffffffffffffffffffffffffffffff163273ffffffffffffffffffffffffffffffffffffffff161480610cec5750600560009054906101000a900473ffffffffffffffffffffffffffffffffffffffff1673ffffffffffffffffffffffffffffffffffffffff163273ffffffffffffffffffffffffffffffffffffffff16145b610d2b576040517f08c379a0000000000000000000000000000000000000000000000000000000008152600401610d2290613b23565b60405180910390fd5b8160008481548110610d4057610d3f613aa8565b5b90600052602060002090600a02016009019080519060200190610d64929190612dd9565b50505050565b600560009054906101000a900473ffffffffffffffffffffffffffffffffffffffff1673ffffffffffffffffffffffffffffffffffffffff163273ffffffffffffffffffffffffffffffffffffffff1614610dfa576040517f08c379a0000000000000000000000000000000000000000000000000000000008152600401610df190613a88565b60405180910390fd5b8060008381548110610e0f57610e0e613aa8565b5b90600052602060002090600a02016005019080519060200190610e33929190612dd9565b505050565b610e40612e5f565b60008281548110610e5457610e53613aa8565b5b90600052602060002090600a0201604051806101800160405290816000820160009054906101000a900473ffffffffffffffffffffffffffffffffffffffff1673ffffffffffffffffffffffffffffffffffffffff1673ffffffffffffffffffffffffffffffffffffffff1681526020016001820160009054906101000a900473ffffffffffffffffffffffffffffffffffffffff1673ffffffffffffffffffffffffffffffffffffffff1673ffffffffffffffffffffffffffffffffffffffff1681526020016001820160149054906101000a900460ff161515151581526020016001820160159054906101000a900460ff16151515158152602001600282015481526020016003820154815260200160048201548152602001600582018054610f7e90613b72565b80601f0160208091040260200160405190810160405280929190818152602001828054610faa90613b72565b8015610ff75780601f10610fcc57610100808354040283529160200191610ff7565b820191906000526020600020905b815481529060010190602001808311610fda57829003601f168201915b5050505050815260200160068201805461101090613b72565b80601f016020809104026020016040519081016040528092919081815260200182805461103c90613b72565b80156110895780601f1061105e57610100808354040283529160200191611089565b820191906000526020600020905b81548152906001019060200180831161106c57829003601f168201915b505050505081526020016007820180546110a290613b72565b80601f01602080910402602001604051908101604052809291908181526020018280546110ce90613b72565b801561111b5780601f106110f05761010080835404028352916020019161111b565b820191906000526020600020905b8154815290600101906020018083116110fe57829003601f168201915b5050505050815260200160088201805461113490613b72565b80601f016020809104026020016040519081016040528092919081815260200182805461116090613b72565b80156111ad5780601f10611182576101008083540402835291602001916111ad565b820191906000526020600020905b81548152906001019060200180831161119057829003601f168201915b505050505081526020016009820180546111c690613b72565b80601f01602080910402602001604051908101604052809291908181526020018280546111f290613b72565b801561123f5780601f106112145761010080835404028352916020019161123f565b820191906000526020600020905b81548152906001019060200180831161122257829003601f168201915b5050505050815250509050919050565b806112598161159e565b73ffffffffffffffffffffffffffffffffffffffff163273ffffffffffffffffffffffffffffffffffffffff1614806112df5750600560009054906101000a900473ffffffffffffffffffffffffffffffffffffffff1673ffffffffffffffffffffffffffffffffffffffff163273ffffffffffffffffffffffffffffffffffffffff16145b61131e576040517f08c379a000000000000000000000000000000000000000000000000000000000815260040161131590613b23565b60405180910390fd5b826000838154811061133357611332613aa8565b5b90600052602060002090600a020160000160006101000a81548173ffffffffffffffffffffffffffffffffffffffff021916908373ffffffffffffffffffffffffffffffffffffffff160217905550505050565b600560009054906101000a900473ffffffffffffffffffffffffffffffffffffffff1673ffffffffffffffffffffffffffffffffffffffff163273ffffffffffffffffffffffffffffffffffffffff1614611417576040517f08c379a000000000000000000000000000000000000000000000000000000000815260040161140e90613a88565b60405180910390fd5b806000838154811061142c5761142b613aa8565b5b90600052602060002090600a0201600301819055505050565b806000818154811061145a57611459613aa8565b5b90600052602060002090600a020160010160009054906101000a900473ffffffffffffffffffffffffffffffffffffffff1673ffffffffffffffffffffffffffffffffffffffff163273ffffffffffffffffffffffffffffffffffffffff16146114f9576040517f08c379a00000000000000000000000000000000000000000000000000000000081526004016114f090613bf0565b60405180910390fd5b600080838154811061150e5761150d613aa8565b5b90600052602060002090600a020160010160006101000a81548173ffffffffffffffffffffffffffffffffffffffff021916908373ffffffffffffffffffffffffffffffffffffffff1602179055505050565b60006003600083815260200190815260200160002060009054906101000a900473ffffffffffffffffffffffffffffffffffffffff169050919050565b60008082815481106115b3576115b2613aa8565b5b90600052602060002090600a020160000160009054906101000a900473ffffffffffffffffffffffffffffffffffffffff169050919050565b61162b816040518060400160405280600481526020017f73616c6500000000000000000000000000000000000000000000000000000000815250612069565b50565b806116388161159e565b73ffffffffffffffffffffffffffffffffffffffff163273ffffffffffffffffffffffffffffffffffffffff1614806116be5750600560009054906101000a900473ffffffffffffffffffffffffffffffffffffffff1673ffffffffffffffffffffffffffffffffffffffff163273ffffffffffffffffffffffffffffffffffffffff16145b6116fd576040517f08c379a00000000000000000000000000000000000000000000000000000000081526004016116f490613b23565b60405180910390fd5b6000828154811061171157611710613aa8565b5b90600052602060002090600a0201600201544211611764576040517f08c379a000000000000000000000000000000000000000000000000000000000815260040161175b90613c5c565b60405180910390fd5b600080838154811061177957611778613aa8565b5b90600052602060002090600a020160010160006101000a81548173ffffffffffffffffffffffffffffffffffffffff021916908373ffffffffffffffffffffffffffffffffffffffff1602179055505050565b61180b816040518060400160405280600481526020017f72656e7400000000000000000000000000000000000000000000000000000000815250612069565b50565b61184e82826040518060400160405280600481526020017f73616c650000000000000000000000000000000000000000000000000000000081525061267e565b5050565b61189482826040518060400160405280600481526020017f73616c65000000000000000000000000000000000000000000000000000000008152506001612934565b5050565b6000816040516020016118ab9190613cb8565b60405160208183030381529060405280519060200120836040516020016118d29190613cb8565b6040516020818303038152906040528051906020012014905092915050565b61193382826040518060400160405280600481526020017f72656e74000000000000000000000000000000000000000000000000000000008152506001612934565b5050565b61197782826040518060400160405280600481526020017f72656e740000000000000000000000000000000000000000000000000000000081525061267e565b5050565b6119be8160006040518060400160405280600481526020017f72656e74000000000000000000000000000000000000000000000000000000008152506000612934565b60006004600083815260200190815260200160002060006101000a81548173ffffffffffffffffffffffffffffffffffffffff021916908373ffffffffffffffffffffffffffffffffffffffff16021790555050565b60606000805480602002602001604051908101604052809291908181526020016000905b82821015611e4557838290600052602060002090600a0201604051806101800160405290816000820160009054906101000a900473ffffffffffffffffffffffffffffffffffffffff1673ffffffffffffffffffffffffffffffffffffffff1673ffffffffffffffffffffffffffffffffffffffff1681526020016001820160009054906101000a900473ffffffffffffffffffffffffffffffffffffffff1673ffffffffffffffffffffffffffffffffffffffff1673ffffffffffffffffffffffffffffffffffffffff1681526020016001820160149054906101000a900460ff161515151581526020016001820160159054906101000a900460ff16151515158152602001600282015481526020016003820154815260200160048201548152602001600582018054611b6c90613b72565b80601f0160208091040260200160405190810160405280929190818152602001828054611b9890613b72565b8015611be55780601f10611bba57610100808354040283529160200191611be5565b820191906000526020600020905b815481529060010190602001808311611bc857829003601f168201915b50505050508152602001600682018054611bfe90613b72565b80601f0160208091040260200160405190810160405280929190818152602001828054611c2a90613b72565b8015611c775780601f10611c4c57610100808354040283529160200191611c77565b820191906000526020600020905b815481529060010190602001808311611c5a57829003601f168201915b50505050508152602001600782018054611c9090613b72565b80601f0160208091040260200160405190810160405280929190818152602001828054611cbc90613b72565b8015611d095780601f10611cde57610100808354040283529160200191611d09565b820191906000526020600020905b815481529060010190602001808311611cec57829003601f168201915b50505050508152602001600882018054611d2290613b72565b80601f0160208091040260200160405190810160405280929190818152602001828054611d4e90613b72565b8015611d9b5780601f10611d7057610100808354040283529160200191611d9b565b820191906000526020600020905b815481529060010190602001808311611d7e57829003601f168201915b50505050508152602001600982018054611db490613b72565b80601f0160208091040260200160405190810160405280929190818152602001828054611de090613b72565b8015611e2d5780601f10611e0257610100808354040283529160200191611e2d565b820191906000526020600020905b815481529060010190602001808311611e1057829003601f168201915b50505050508152505081526020019060010190611a38565b50505050905090565b611e918160006040518060400160405280600481526020017f73616c65000000000000000000000000000000000000000000000000000000008152506000612934565b60006003600083815260200190815260200160002060006101000a81548173ffffffffffffffffffffffffffffffffffffffff021916908373ffffffffffffffffffffffffffffffffffffffff16021790555050565b8060008181548110611efc57611efb613aa8565b5b90600052602060002090600a020160010160009054906101000a900473ffffffffffffffffffffffffffffffffffffffff1673ffffffffffffffffffffffffffffffffffffffff163273ffffffffffffffffffffffffffffffffffffffff1614611f9b576040517f08c379a0000000000000000000000000000000000000000000000000000000008152600401611f9290613bf0565b60405180910390fd5b6002600083815260200190815260200160002054341015611ff1576040517f08c379a0000000000000000000000000000000000000000000000000000000008152600401611fe890613d41565b60405180910390fd5b61203f6000838154811061200857612007613aa8565b5b90600052602060002090600a020160000160009054906101000a900473ffffffffffffffffffffffffffffffffffffffff16612bfb565b61204882612d97565b5050565b600060016000838152602001908152602001600020549050919050565b600060606120ac836040518060400160405280600481526020017f73616c6500000000000000000000000000000000000000000000000000000000815250611898565b1561233d576003600085815260200190815260200160002060009054906101000a900473ffffffffffffffffffffffffffffffffffffffff1673ffffffffffffffffffffffffffffffffffffffff163273ffffffffffffffffffffffffffffffffffffffff1614612152576040517f08c379a000000000000000000000000000000000000000000000000000000000815260040161214990613dd3565b60405180910390fd5b60016000858152602001908152602001600020543410156121a8576040517f08c379a000000000000000000000000000000000000000000000000000000000815260040161219f90613d41565b60405180910390fd5b6121f6600085815481106121bf576121be613aa8565b5b90600052602060002090600a020160000160009054906101000a900473ffffffffffffffffffffffffffffffffffffffff16612bfb565b6003600085815260200190815260200160002060009054906101000a900473ffffffffffffffffffffffffffffffffffffffff166000858154811061223e5761223d613aa8565b5b90600052602060002090600a020160000160006101000a81548173ffffffffffffffffffffffffffffffffffffffff021916908373ffffffffffffffffffffffffffffffffffffffff16021790555060008085815481106122a2576122a1613aa8565b5b90600052602060002090600a020160010160156101000a81548160ff0219169083151502179055506003600085815260200190815260200160002060009054906101000a900473ffffffffffffffffffffffffffffffffffffffff1691506040518060400160405280600681526020017f626f756768740000000000000000000000000000000000000000000000000000815250905061263d565b61237c836040518060400160405280600481526020017f72656e7400000000000000000000000000000000000000000000000000000000815250611898565b1561263c576004600085815260200190815260200160002060009054906101000a900473ffffffffffffffffffffffffffffffffffffffff1673ffffffffffffffffffffffffffffffffffffffff163273ffffffffffffffffffffffffffffffffffffffff1614612422576040517f08c379a000000000000000000000000000000000000000000000000000000000815260040161241990613e65565b60405180910390fd5b6002600085815260200190815260200160002054341015612478576040517f08c379a000000000000000000000000000000000000000000000000000000000815260040161246f90613d41565b60405180910390fd5b6124c66000858154811061248f5761248e613aa8565b5b90600052602060002090600a020160000160009054906101000a900473ffffffffffffffffffffffffffffffffffffffff16612bfb565b6004600085815260200190815260200160002060009054906101000a900473ffffffffffffffffffffffffffffffffffffffff166000858154811061250e5761250d613aa8565b5b90600052602060002090600a020160010160006101000a81548173ffffffffffffffffffffffffffffffffffffffff021916908373ffffffffffffffffffffffffffffffffffffffff160217905550426000858154811061257257612571613aa8565b5b90600052602060002090600a02016002018190555061259084612d97565b60008085815481106125a5576125a4613aa8565b5b90600052602060002090600a020160010160146101000a81548160ff0219169083151502179055506004600085815260200190815260200160002060009054906101000a900473ffffffffffffffffffffffffffffffffffffffff1691506040518060400160405280600681526020017f72656e746564000000000000000000000000000000000000000000000000000081525090505b5b7f71348baf719c3d8cf33c4bf5c88eee2b9f147a2c0c9473750dbfdb30631ad84481833460405161267093929190613f1d565b60405180910390a150505050565b826126888161159e565b73ffffffffffffffffffffffffffffffffffffffff163273ffffffffffffffffffffffffffffffffffffffff16148061270e5750600560009054906101000a900473ffffffffffffffffffffffffffffffffffffffff1673ffffffffffffffffffffffffffffffffffffffff163273ffffffffffffffffffffffffffffffffffffffff16145b61274d576040517f08c379a000000000000000000000000000000000000000000000000000000000815260040161274490613b23565b60405180910390fd5b606061278e836040518060400160405280600481526020017f73616c6500000000000000000000000000000000000000000000000000000000815250611898565b1561282257836003600087815260200190815260200160002060006101000a81548173ffffffffffffffffffffffffffffffffffffffff021916908373ffffffffffffffffffffffffffffffffffffffff1602179055506040518060400160405280600581526020017f627579657200000000000000000000000000000000000000000000000000000081525090506128f2565b612861836040518060400160405280600481526020017f72656e7400000000000000000000000000000000000000000000000000000000815250611898565b156128f157836004600087815260200190815260200160002060006101000a81548173ffffffffffffffffffffffffffffffffffffffff021916908373ffffffffffffffffffffffffffffffffffffffff1602179055506040518060400160405280600681526020017f74656e616e74000000000000000000000000000000000000000000000000000081525090505b5b7fa3c5a70e05e8a5a093a4a0dd1d743ad38ba02dff2c9ee9479d3383a69ed7dbcb81868660405161292593929190613f5b565b60405180910390a15050505050565b8361293e8161159e565b73ffffffffffffffffffffffffffffffffffffffff163273ffffffffffffffffffffffffffffffffffffffff1614806129c45750600560009054906101000a900473ffffffffffffffffffffffffffffffffffffffff1673ffffffffffffffffffffffffffffffffffffffff163273ffffffffffffffffffffffffffffffffffffffff16145b612a03576040517f08c379a00000000000000000000000000000000000000000000000000000000081526004016129fa90613b23565b60405180910390fd5b612a42836040518060400160405280600481526020017f73616c6500000000000000000000000000000000000000000000000000000000815250611898565b15612aa1578360016000878152602001908152602001600020819055508160008681548110612a7457612a73613aa8565b5b90600052602060002090600a020160010160156101000a81548160ff021916908315150217905550612bb9565b612ae0836040518060400160405280600481526020017f72656e7400000000000000000000000000000000000000000000000000000000815250611898565b8015612b5d5750600073ffffffffffffffffffffffffffffffffffffffff1660008681548110612b1357612b12613aa8565b5b90600052602060002090600a020160010160009054906101000a900473ffffffffffffffffffffffffffffffffffffffff1673ffffffffffffffffffffffffffffffffffffffff16145b15612bb8578360026000878152602001908152602001600020819055508160008681548110612b8f57612b8e613aa8565b5b90600052602060002090600a020160010160146101000a81548160ff0219169083151502179055505b5b7feda648b634489dce0a8a6b16a2f57b854ff7baec60e175a564ecc4cec787da11838686604051612bec93929190613f99565b60405180910390a15050505050565b600560009054906101000a900473ffffffffffffffffffffffffffffffffffffffff1673ffffffffffffffffffffffffffffffffffffffff168173ffffffffffffffffffffffffffffffffffffffff161415612cbf57600660009054906101000a900473ffffffffffffffffffffffffffffffffffffffff1673ffffffffffffffffffffffffffffffffffffffff166108fc349081150290604051600060405180830381858888f19350505050158015612cb9573d6000803e3d6000fd5b50612d94565b600660009054906101000a900473ffffffffffffffffffffffffffffffffffffffff1673ffffffffffffffffffffffffffffffffffffffff166108fc600a34612d089190614035565b9081150290604051600060405180830381858888f19350505050158015612d33573d6000803e3d6000fd5b508073ffffffffffffffffffffffffffffffffffffffff166108fc6009600a34612d5d9190614035565b612d679190614066565b9081150290604051600060405180830381858888f19350505050158015612d92573d6000803e3d6000fd5b505b50565b62278d0060008281548110612daf57612dae613aa8565b5b90600052602060002090600a02016002016000828254612dcf91906140c0565b9250508190555050565b828054612de590613b72565b90600052602060002090601f016020900481019282612e075760008555612e4e565b82601f10612e2057805160ff1916838001178555612e4e565b82800160010185558215612e4e579182015b82811115612e4d578251825591602001919060010190612e32565b5b509050612e5b9190612ef0565b5090565b604051806101800160405280600073ffffffffffffffffffffffffffffffffffffffff168152602001600073ffffffffffffffffffffffffffffffffffffffff16815260200160001515815260200160001515815260200160008152602001600081526020016000815260200160608152602001606081526020016060815260200160608152602001606081525090565b5b80821115612f09576000816000905550600101612ef1565b5090565b600082825260208201905092915050565b7f66616c6c6261636b000000000000000000000000000000000000000000000000600082015250565b6000612f54600883612f0d565b9150612f5f82612f1e565b602082019050919050565b600073ffffffffffffffffffffffffffffffffffffffff82169050919050565b6000612f9582612f6a565b9050919050565b612fa581612f8a565b82525050565b6000819050919050565b612fbe81612fab565b82525050565b600082825260208201905092915050565b50565b6000612fe5600083612fc4565b9150612ff082612fd5565b600082019050919050565b6000608082019050818103600083015261301481612f47565b90506130236020830185612f9c565b6130306040830184612fb5565b818103606083015261304181612fd8565b90509392505050565b82818337600083830152505050565b6000601f19601f8301169050919050565b60006130768385612fc4565b935061308383858461304a565b61308c83613059565b840190509392505050565b600060808201905081810360008301526130b081612f47565b90506130bf6020830187612f9c565b6130cc6040830186612fb5565b81810360608301526130df81848661306a565b905095945050505050565b6000604051905090565b600080fd5b600080fd5b600061310982612f6a565b9050919050565b613119816130fe565b811461312457600080fd5b50565b60008135905061313681613110565b92915050565b61314581612fab565b811461315057600080fd5b50565b6000813590506131628161313c565b92915050565b600080fd5b600080fd5b7f4e487b7100000000000000000000000000000000000000000000000000000000600052604160045260246000fd5b6131aa82613059565b810181811067ffffffffffffffff821117156131c9576131c8613172565b5b80604052505050565b60006131dc6130ea565b90506131e882826131a1565b919050565b600067ffffffffffffffff82111561320857613207613172565b5b61321182613059565b9050602081019050919050565b600061323161322c846131ed565b6131d2565b90508281526020810184848401111561324d5761324c61316d565b5b61325884828561304a565b509392505050565b600082601f83011261327557613274613168565b5b813561328584826020860161321e565b91505092915050565b600080600080600080600080610100898b0312156132af576132ae6130f4565b5b60006132bd8b828c01613127565b98505060206132ce8b828c01613153565b97505060406132df8b828c01613153565b965050606089013567ffffffffffffffff811115613300576132ff6130f9565b5b61330c8b828c01613260565b955050608089013567ffffffffffffffff81111561332d5761332c6130f9565b5b6133398b828c01613260565b94505060a089013567ffffffffffffffff81111561335a576133596130f9565b5b6133668b828c01613260565b93505060c089013567ffffffffffffffff811115613387576133866130f9565b5b6133938b828c01613260565b92505060e089013567ffffffffffffffff8111156133b4576133b36130f9565b5b6133c08b828c01613260565b9150509295985092959890939650565b6000602082840312156133e6576133e56130f4565b5b60006133f484828501613153565b91505092915050565b60006020820190506134126000830184612fb5565b92915050565b6000806040838503121561342f5761342e6130f4565b5b600061343d85828601613153565b925050602083013567ffffffffffffffff81111561345e5761345d6130f9565b5b61346a85828601613260565b9150509250929050565b61347d816130fe565b82525050565b60006020820190506134986000830184613474565b92915050565b600080604083850312156134b5576134b46130f4565b5b60006134c385828601613153565b92505060206134d485828601613153565b9150509250929050565b6134e7816130fe565b82525050565b6134f681612f8a565b82525050565b60008115159050919050565b613511816134fc565b82525050565b61352081612fab565b82525050565b600081519050919050565b600082825260208201905092915050565b60005b83811015613560578082015181840152602081019050613545565b8381111561356f576000848401525b50505050565b600061358082613526565b61358a8185613531565b935061359a818560208601613542565b6135a381613059565b840191505092915050565b6000610180830160008301516135c760008601826134de565b5060208301516135da60208601826134ed565b5060408301516135ed6040860182613508565b5060608301516136006060860182613508565b5060808301516136136080860182613517565b5060a083015161362660a0860182613517565b5060c083015161363960c0860182613517565b5060e083015184820360e08601526136518282613575565b91505061010083015184820361010086015261366d8282613575565b9150506101208301518482036101208601526136898282613575565b9150506101408301518482036101408601526136a58282613575565b9150506101608301518482036101608601526136c18282613575565b9150508091505092915050565b600060208201905081810360008301526136e881846135ae565b905092915050565b60008060408385031215613707576137066130f4565b5b600061371585828601613127565b925050602061372685828601613153565b9150509250929050565b60008060408385031215613747576137466130f4565b5b600061375585828601613153565b925050602061376685828601613127565b9150509250929050565b60008060408385031215613787576137866130f4565b5b600083013567ffffffffffffffff8111156137a5576137a46130f9565b5b6137b185828601613260565b925050602083013567ffffffffffffffff8111156137d2576137d16130f9565b5b6137de85828601613260565b9150509250929050565b6137f1816134fc565b82525050565b600060208201905061380c60008301846137e8565b92915050565b600081519050919050565b600082825260208201905092915050565b6000819050602082019050919050565b60006101808301600083015161385760008601826134de565b50602083015161386a60208601826134ed565b50604083015161387d6040860182613508565b5060608301516138906060860182613508565b5060808301516138a36080860182613517565b5060a08301516138b660a0860182613517565b5060c08301516138c960c0860182613517565b5060e083015184820360e08601526138e18282613575565b9150506101008301518482036101008601526138fd8282613575565b9150506101208301518482036101208601526139198282613575565b9150506101408301518482036101408601526139358282613575565b9150506101608301518482036101608601526139518282613575565b9150508091505092915050565b600061396a838361383e565b905092915050565b6000602082019050919050565b600061398a82613812565b613994818561381d565b9350836020820285016139a68561382e565b8060005b858110156139e257848403895281516139c3858261395e565b94506139ce83613972565b925060208a019950506001810190506139aa565b50829750879550505050505092915050565b60006020820190508181036000830152613a0e818461397f565b905092915050565b7f4e6f742074686520676f7665726e6d656e74206f66207468652073797374656d60008201527f2100000000000000000000000000000000000000000000000000000000000000602082015250565b6000613a72602183612f0d565b9150613a7d82613a16565b604082019050919050565b60006020820190508181036000830152613aa181613a65565b9050919050565b7f4e487b7100000000000000000000000000000000000000000000000000000000600052603260045260246000fd5b7f4e6f7420746865206f776e6572206f66207468652070726f7065727479210000600082015250565b6000613b0d601e83612f0d565b9150613b1882613ad7565b602082019050919050565b60006020820190508181036000830152613b3c81613b00565b9050919050565b7f4e487b7100000000000000000000000000000000000000000000000000000000600052602260045260246000fd5b60006002820490506001821680613b8a57607f821691505b60208210811415613b9e57613b9d613b43565b5b50919050565b7f4e6f74207468652074656e616e74206f66207468652070726f70657274792100600082015250565b6000613bda601f83612f0d565b9150613be582613ba4565b602082019050919050565b60006020820190508181036000830152613c0981613bcd565b9050919050565b7f52656e742064617465206973206e6f7420647565210000000000000000000000600082015250565b6000613c46601583612f0d565b9150613c5182613c10565b602082019050919050565b60006020820190508181036000830152613c7581613c39565b9050919050565b600081905092915050565b6000613c9282613526565b613c9c8185613c7c565b9350613cac818560208601613542565b80840191505092915050565b6000613cc48284613c87565b915081905092915050565b7f4e6f7420656e6f75676820657468657220737570706c69656420746f2074726160008201527f6e73616374696f6e210000000000000000000000000000000000000000000000602082015250565b6000613d2b602983612f0d565b9150613d3682613ccf565b604082019050919050565b60006020820190508181036000830152613d5a81613d1e565b9050919050565b7f4e6f742074686520617070726f766564206275796572206f662074686520707260008201527f6f70657274792100000000000000000000000000000000000000000000000000602082015250565b6000613dbd602783612f0d565b9150613dc882613d61565b604082019050919050565b60006020820190508181036000830152613dec81613db0565b9050919050565b7f4e6f742074686520617070726f7665642074656e616e74206f6620746865207060008201527f726f706572747921000000000000000000000000000000000000000000000000602082015250565b6000613e4f602883612f0d565b9150613e5a82613df3565b604082019050919050565b60006020820190508181036000830152613e7e81613e42565b9050919050565b6000613e9082613526565b613e9a8185612f0d565b9350613eaa818560208601613542565b613eb381613059565b840191505092915050565b6000819050919050565b6000613ee3613ede613ed984612f6a565b613ebe565b612f6a565b9050919050565b6000613ef582613ec8565b9050919050565b6000613f0782613eea565b9050919050565b613f1781613efc565b82525050565b60006060820190508181036000830152613f378186613e85565b9050613f466020830185613f0e565b613f536040830184612fb5565b949350505050565b60006060820190508181036000830152613f758186613e85565b9050613f846020830185612fb5565b613f916040830184613f0e565b949350505050565b60006060820190508181036000830152613fb38186613e85565b9050613fc26020830185612fb5565b613fcf6040830184612fb5565b949350505050565b7f4e487b7100000000000000000000000000000000000000000000000000000000600052601260045260246000fd5b7f4e487b7100000000000000000000000000000000000000000000000000000000600052601160045260246000fd5b600061404082612fab565b915061404b83612fab565b92508261405b5761405a613fd7565b5b828204905092915050565b600061407182612fab565b915061407c83612fab565b9250817fffffffffffffffffffffffffffffffffffffffffffffffffffffffffffffffff04831182151516156140b5576140b4614006565b5b828202905092915050565b60006140cb82612fab565b91506140d683612fab565b9250827fffffffffffffffffffffffffffffffffffffffffffffffffffffffffffffffff0382111561410b5761410a614006565b5b82820190509291505056fea26469706673582212203eb2fe2611a7a7a5e807ac8fb7d5b435fdc1716e516a01364b61c5fcb66c6ce764736f6c634300080b0033",
  "immutableReferences": {},
  "source": "// SPDX-License-Identifier: GPL-3.0\r\n\r\npragma solidity >=0.8.0 <0.9.0;\r\n\r\ncontract HomeChainProduction\r\n{\r\n    struct RealEstate \r\n    {\r\n        address payable owner;\r\n        address tenant;\r\n        bool forRent;\r\n        bool forSale;\r\n        uint payday;\r\n        uint256 squaring;\r\n        uint256 floor;\r\n        string construction;\r\n        string city;\r\n        string neighborhood;\r\n        string description;\r\n        string phone;\r\n    }\r\n\r\n    RealEstate[] private estates;\r\n    mapping(uint => uint) private pricesSale;\r\n    mapping(uint => uint) private pricesRent;\r\n    mapping(uint => address payable) private buyers;\r\n    mapping(uint => address payable) private tenants;\r\n\r\n    address private government;\r\n    address payable private governmentWallet;\r\n\r\n    event Announcement(\r\n        string ann,\r\n        uint id,\r\n        uint prices\r\n    );\r\n\r\n    event Approval(\r\n        string prs,\r\n        uint id,\r\n        address buyer\r\n    );\r\n\r\n    event PropertyUpdate(\r\n        string act,\r\n        address buyer,\r\n        uint id\r\n    );\r\n\r\n    event Log(\r\n        string func, \r\n        address sender, \r\n        uint value, \r\n        bytes data\r\n    );\r\n\r\n    fallback() external payable {\r\n        emit Log(\"fallback\", msg.sender, msg.value, msg.data);\r\n    }\r\n\r\n    receive() external payable {\r\n        emit Log(\"fallback\", msg.sender, msg.value, \"\");\r\n    }\r\n\r\n    constructor(address payable _governmentWallet)\r\n    {\r\n        government = msg.sender;\r\n        governmentWallet = _governmentWallet;\r\n    }\r\n\r\n    modifier onlyGovernment()\r\n    {\r\n        require(tx.origin == government, \"Not the government of the system!\");\r\n        _;\r\n    }\r\n\r\n    modifier onlyOwner(uint id)\r\n    {\r\n        require(tx.origin == getOwnerById(id) || tx.origin == government, \"Not the owner of the property!\");\r\n        _;\r\n    }\r\n\r\n    modifier onlyTenant(uint id)\r\n    {\r\n        require(tx.origin == estates[id].tenant, \"Not the tenant of the property!\");\r\n        _;\r\n    }\r\n\r\n    function addEstate(address payable _owner, \r\n                        uint _squaring,\r\n                        uint _floor, \r\n                        string memory _construction, \r\n                        string memory _city, \r\n                        string memory _neighborhood, \r\n                        string memory _description, \r\n                        string memory _phone) \r\n                        public onlyGovernment\r\n    {  \r\n        estates.push(RealEstate(_owner, address(0), false, false, 0, _squaring, _floor, _construction, _city, _neighborhood, _description, _phone));\r\n    }\r\n\r\n    function setSquaring(uint id, uint _squaring) public onlyGovernment\r\n    {\r\n        estates[id].squaring = _squaring; \r\n    }\r\n\r\n    function setFloor(uint id, uint _floor) public onlyGovernment\r\n    {\r\n        estates[id].floor = _floor; \r\n    }\r\n\r\n    function setConstruction(uint id, string memory _construction) public onlyGovernment\r\n    {\r\n        estates[id].construction = _construction; \r\n    }\r\n\r\n    function setNeighborhood(uint id, string memory _neighborhood) public onlyGovernment\r\n    {\r\n        estates[id].neighborhood = _neighborhood; \r\n    }\r\n\r\n    function setDescription(uint id, string memory _description) public onlyGovernment\r\n    {\r\n        estates[id].description = _description; \r\n    }\r\n\r\n    function setPhone(uint id, string memory _phone) public onlyOwner(id)\r\n    {\r\n        estates[id].phone = _phone; \r\n    }\r\n\r\n    function getEstateById(uint id) public view returns(RealEstate memory)\r\n    {\r\n        return estates[id];\r\n    }\r\n\r\n    function changeOwner(address payable _newOwner, uint id) public onlyOwner(id)\r\n    {  \r\n        estates[id].owner = _newOwner;\r\n    }\r\n    \r\n    function getOwnerById(uint id) public view returns (address payable)\r\n    {\r\n        return estates[id].owner;\r\n    }\r\n    \r\n    function getPricesSaleOfEstate(uint id) public view returns (uint)\r\n    {\r\n        return pricesSale[id];\r\n    }\r\n\r\n    function getPricesRentOfEstate(uint id) public view returns (uint)\r\n    {\r\n        return pricesRent[id];\r\n    }\r\n\r\n    function getAddressOfApprovedBuyer(uint id) public view returns (address payable)\r\n    {\r\n        return buyers[id];\r\n    }\r\n\r\n    function getAddressOfApprovedTenant(uint id) public view returns (address payable)\r\n    {\r\n        return tenants[id];\r\n    }\r\n\r\n    function getEstates() public view returns (RealEstate[] memory)\r\n    {\r\n        return estates;\r\n    }\r\n\r\n\r\n    function announceEstateFor(uint id, uint price, string memory option, bool b) private onlyOwner(id)\r\n    {\r\n        if(compareStrings(option, \"sale\"))\r\n        {\r\n            pricesSale[id] = price;\r\n            estates[id].forSale = b; \r\n        }\r\n        else if(compareStrings(option, \"rent\") && estates[id].tenant == address(0))\r\n        {   \r\n            pricesRent[id] = price; \r\n            estates[id].forRent = b;\r\n        }\r\n\r\n        emit Announcement(option, id, price);\r\n    }\r\n\r\n    function announceEstateForSale(uint id, uint price) public \r\n    {\r\n        announceEstateFor(id, price, \"sale\", true);\r\n    }\r\n\r\n    function announceEstateForRent(uint id, uint price) public \r\n    {\r\n        announceEstateFor(id, price, \"rent\", true);\r\n    }\r\n\r\n    function announceEstateNotForSale(uint id) public \r\n    {\r\n        announceEstateFor(id, 0, \"sale\", false);\r\n        buyers[id] = payable(address(0));\r\n    }\r\n\r\n    function announceEstateNotForRent(uint id) public \r\n    {\r\n        announceEstateFor(id, 0, \"rent\", false);\r\n        tenants[id] = payable(address(0));\r\n    }\r\n\r\n    function compareStrings(string memory a, string memory b) public pure returns (bool)\r\n    {\r\n        return (keccak256(abi.encodePacked((a))) == keccak256(abi.encodePacked((b))));\r\n    } \r\n\r\n    function approve(uint id, address payable buyer, string memory option) private  onlyOwner(id)\r\n    {\r\n        string memory prs;\r\n        if(compareStrings(option, \"sale\"))\r\n        {\r\n            buyers[id] = buyer;\r\n            prs = \"buyer\";\r\n        }\r\n        else if(compareStrings(option, \"rent\"))\r\n        {\r\n            tenants[id] = buyer;\r\n            prs = \"tenant\";\r\n        }\r\n        emit Approval(prs, id, buyer);\r\n    }\r\n\r\n    function approveBuyer(uint id, address payable buyer) public \r\n    {\r\n        approve(id, buyer, \"sale\");\r\n    }\r\n\r\n    function approveTenant(uint id, address payable tenant) public \r\n    {\r\n        approve(id, tenant, \"rent\");\r\n    }\r\n\r\n    function updateProperty(uint id, string memory option) private\r\n    {\r\n        address payable adr;\r\n        string memory action;\r\n        if(compareStrings(option, \"sale\"))\r\n        {\r\n            require(tx.origin == buyers[id], \"Not the approved buyer of the property!\");\r\n            require(msg.value >= pricesSale[id], \"Not enough ether supplied to transaction!\");\r\n            payTaxes(estates[id].owner);\r\n            estates[id].owner = buyers[id];\r\n            estates[id].forSale = false;\r\n            adr = buyers[id];\r\n            action = \"bought\";\r\n        }\r\n        else if(compareStrings(option, \"rent\"))\r\n        {\r\n            require(tx.origin == tenants[id], \"Not the approved tenant of the property!\");\r\n            require(msg.value >= pricesRent[id], \"Not enough ether supplied to transaction!\");\r\n            payTaxes(estates[id].owner);\r\n            estates[id].tenant = tenants[id];\r\n            estates[id].payday = block.timestamp;\r\n            updateRentDate(id);\r\n            estates[id].forRent = false;\r\n            adr = tenants[id];\r\n            action = \"rented\";\r\n        }\r\n        \r\n        emit PropertyUpdate(action, adr, msg.value);\r\n    }\r\n\r\n    function purchaseProperty(uint id) public payable\r\n    {\r\n        updateProperty(id, \"sale\");\r\n    }\r\n\r\n    function rentProperty(uint id) public payable\r\n    {\r\n        updateProperty(id, \"rent\");\r\n    }\r\n\r\n    function leave(uint id) public onlyTenant(id)\r\n    {\r\n        estates[id].tenant = address(0);\r\n    }\r\n\r\n    function payRent(uint id) public payable onlyTenant(id)\r\n    {\r\n        require(msg.value >= pricesRent[id], \"Not enough ether supplied to transaction!\");\r\n        payTaxes(estates[id].owner);\r\n        updateRentDate(id);\r\n    }\r\n    \r\n    function updateRentDate(uint id) private\r\n    {\r\n        estates[id].payday += 2592000;\r\n    }\r\n\r\n    function payTaxes(address payable reciever) private\r\n    {\r\n        if(reciever == government)\r\n        {\r\n            governmentWallet.transfer(msg.value);\r\n        }\r\n        else\r\n        {\r\n            governmentWallet.transfer(msg.value/10);\r\n            reciever.transfer((msg.value/10)*9);\r\n        }\r\n    }\r\n\r\n    function removeTenant(uint id) public onlyOwner(id)\r\n    {\r\n        require(block.timestamp > estates[id].payday, \"Rent date is not due!\");\r\n        estates[id].tenant = address(0);\r\n    }\r\n}\r\n\r\n",
  "sourcePath": "D:\\CompSci\\blockchain2\\project3\\home-chain-contract\\contracts\\HomeChainProduction.sol",
  "compiler": {
    "name": "solc",
    "version": "0.8.11+commit.d7f03943.Emscripten.clang"
  },
  "schemaVersion": "3.4.7",
  "updatedAt": "2022-06-06T19:43:39.512Z",
  "networkType": "ethereum",
  "devdoc": {
    "kind": "dev",
    "methods": {},
    "version": 1
  },
  "userdoc": {
    "kind": "user",
    "methods": {},
    "version": 1
  }
}